{
  "contractName": "facesNFT",
  "abi": [
    {
      "inputs": [
        {
          "internalType": "address",
          "name": "marketplaceAddress",
          "type": "address"
        }
      ],
      "stateMutability": "nonpayable",
      "type": "constructor"
    },
    {
      "anonymous": false,
      "inputs": [
        {
          "indexed": true,
          "internalType": "address",
          "name": "owner",
          "type": "address"
        },
        {
          "indexed": true,
          "internalType": "address",
          "name": "approved",
          "type": "address"
        },
        {
          "indexed": true,
          "internalType": "uint256",
          "name": "tokenId",
          "type": "uint256"
        }
      ],
      "name": "Approval",
      "type": "event"
    },
    {
      "anonymous": false,
      "inputs": [
        {
          "indexed": true,
          "internalType": "address",
          "name": "owner",
          "type": "address"
        },
        {
          "indexed": true,
          "internalType": "address",
          "name": "operator",
          "type": "address"
        },
        {
          "indexed": false,
          "internalType": "bool",
          "name": "approved",
          "type": "bool"
        }
      ],
      "name": "ApprovalForAll",
      "type": "event"
    },
    {
      "anonymous": false,
      "inputs": [
        {
          "indexed": true,
          "internalType": "uint256",
          "name": "itemId",
          "type": "uint256"
        },
        {
          "indexed": true,
          "internalType": "address",
          "name": "nftContract",
          "type": "address"
        },
        {
          "indexed": false,
          "internalType": "address",
          "name": "owner",
          "type": "address"
        },
        {
          "indexed": false,
          "internalType": "string",
          "name": "tokenURI",
          "type": "string"
        }
      ],
      "name": "NFTItemCreated",
      "type": "event"
    },
    {
      "anonymous": false,
      "inputs": [
        {
          "indexed": true,
          "internalType": "address",
          "name": "from",
          "type": "address"
        },
        {
          "indexed": true,
          "internalType": "address",
          "name": "to",
          "type": "address"
        },
        {
          "indexed": true,
          "internalType": "uint256",
          "name": "tokenId",
          "type": "uint256"
        }
      ],
      "name": "Transfer",
      "type": "event"
    },
    {
      "inputs": [
        {
          "internalType": "address",
          "name": "to",
          "type": "address"
        },
        {
          "internalType": "uint256",
          "name": "tokenId",
          "type": "uint256"
        }
      ],
      "name": "approve",
      "outputs": [],
      "stateMutability": "nonpayable",
      "type": "function"
    },
    {
      "inputs": [
        {
          "internalType": "address",
          "name": "owner",
          "type": "address"
        }
      ],
      "name": "balanceOf",
      "outputs": [
        {
          "internalType": "uint256",
          "name": "",
          "type": "uint256"
        }
      ],
      "stateMutability": "view",
      "type": "function",
      "constant": true
    },
    {
      "inputs": [
        {
          "internalType": "uint256",
          "name": "tokenId",
          "type": "uint256"
        }
      ],
      "name": "getApproved",
      "outputs": [
        {
          "internalType": "address",
          "name": "",
          "type": "address"
        }
      ],
      "stateMutability": "view",
      "type": "function",
      "constant": true
    },
    {
      "inputs": [
        {
          "internalType": "address",
          "name": "owner",
          "type": "address"
        },
        {
          "internalType": "address",
          "name": "operator",
          "type": "address"
        }
      ],
      "name": "isApprovedForAll",
      "outputs": [
        {
          "internalType": "bool",
          "name": "",
          "type": "bool"
        }
      ],
      "stateMutability": "view",
      "type": "function",
      "constant": true
    },
    {
      "inputs": [],
      "name": "name",
      "outputs": [
        {
          "internalType": "string",
          "name": "",
          "type": "string"
        }
      ],
      "stateMutability": "view",
      "type": "function",
      "constant": true
    },
    {
      "inputs": [
        {
          "internalType": "uint256",
          "name": "tokenId",
          "type": "uint256"
        }
      ],
      "name": "ownerOf",
      "outputs": [
        {
          "internalType": "address",
          "name": "",
          "type": "address"
        }
      ],
      "stateMutability": "view",
      "type": "function",
      "constant": true
    },
    {
      "inputs": [
        {
          "internalType": "address",
          "name": "from",
          "type": "address"
        },
        {
          "internalType": "address",
          "name": "to",
          "type": "address"
        },
        {
          "internalType": "uint256",
          "name": "tokenId",
          "type": "uint256"
        }
      ],
      "name": "safeTransferFrom",
      "outputs": [],
      "stateMutability": "nonpayable",
      "type": "function"
    },
    {
      "inputs": [
        {
          "internalType": "address",
          "name": "from",
          "type": "address"
        },
        {
          "internalType": "address",
          "name": "to",
          "type": "address"
        },
        {
          "internalType": "uint256",
          "name": "tokenId",
          "type": "uint256"
        },
        {
          "internalType": "bytes",
          "name": "_data",
          "type": "bytes"
        }
      ],
      "name": "safeTransferFrom",
      "outputs": [],
      "stateMutability": "nonpayable",
      "type": "function"
    },
    {
      "inputs": [
        {
          "internalType": "address",
          "name": "operator",
          "type": "address"
        },
        {
          "internalType": "bool",
          "name": "approved",
          "type": "bool"
        }
      ],
      "name": "setApprovalForAll",
      "outputs": [],
      "stateMutability": "nonpayable",
      "type": "function"
    },
    {
      "inputs": [
        {
          "internalType": "bytes4",
          "name": "interfaceId",
          "type": "bytes4"
        }
      ],
      "name": "supportsInterface",
      "outputs": [
        {
          "internalType": "bool",
          "name": "",
          "type": "bool"
        }
      ],
      "stateMutability": "view",
      "type": "function",
      "constant": true
    },
    {
      "inputs": [],
      "name": "symbol",
      "outputs": [
        {
          "internalType": "string",
          "name": "",
          "type": "string"
        }
      ],
      "stateMutability": "view",
      "type": "function",
      "constant": true
    },
    {
      "inputs": [
        {
          "internalType": "uint256",
          "name": "tokenId",
          "type": "uint256"
        }
      ],
      "name": "tokenURI",
      "outputs": [
        {
          "internalType": "string",
          "name": "",
          "type": "string"
        }
      ],
      "stateMutability": "view",
      "type": "function",
      "constant": true
    },
    {
      "inputs": [
        {
          "internalType": "address",
          "name": "from",
          "type": "address"
        },
        {
          "internalType": "address",
          "name": "to",
          "type": "address"
        },
        {
          "internalType": "uint256",
          "name": "tokenId",
          "type": "uint256"
        }
      ],
      "name": "transferFrom",
      "outputs": [],
      "stateMutability": "nonpayable",
      "type": "function"
    },
    {
      "inputs": [
        {
          "internalType": "string",
          "name": "tokenURI",
          "type": "string"
        }
      ],
      "name": "mintItem",
      "outputs": [],
      "stateMutability": "nonpayable",
      "type": "function"
    },
    {
      "inputs": [],
      "name": "fetchMyNFTs",
      "outputs": [
        {
          "components": [
            {
              "internalType": "uint256",
              "name": "itemId",
              "type": "uint256"
            },
            {
              "internalType": "address",
              "name": "nftContract",
              "type": "address"
            },
            {
              "internalType": "address payable",
              "name": "owner",
              "type": "address"
            },
            {
              "internalType": "string",
              "name": "tokenURI",
              "type": "string"
            }
          ],
          "internalType": "struct facesNFT.NFTItem[]",
          "name": "",
          "type": "tuple[]"
        }
      ],
      "stateMutability": "view",
      "type": "function",
      "constant": true
    }
  ],
  "bytecode": "0x60806040523480156200001157600080fd5b50604051620035f9380380620035f9833981810160405281019062000037919062000239565b6040518060400160405280600881526020017f66616365734e46540000000000000000000000000000000000000000000000008152506040518060400160405280600381526020017f46435300000000000000000000000000000000000000000000000000000000008152508160009080519060200190620000bb9291906200011f565b508060019080519060200190620000d49291906200011f565b50505080600860006101000a81548173ffffffffffffffffffffffffffffffffffffffff021916908373ffffffffffffffffffffffffffffffffffffffff16021790555050620002d0565b8280546200012d906200029a565b90600052602060002090601f0160209004810192826200015157600085556200019d565b82601f106200016c57805160ff19168380011785556200019d565b828001600101855582156200019d579182015b828111156200019c5782518255916020019190600101906200017f565b5b509050620001ac9190620001b0565b5090565b5b80821115620001cb576000816000905550600101620001b1565b5090565b600080fd5b600073ffffffffffffffffffffffffffffffffffffffff82169050919050565b60006200020182620001d4565b9050919050565b6200021381620001f4565b81146200021f57600080fd5b50565b600081519050620002338162000208565b92915050565b600060208284031215620002525762000251620001cf565b5b6000620002628482850162000222565b91505092915050565b7f4e487b7100000000000000000000000000000000000000000000000000000000600052602260045260246000fd5b60006002820490506001821680620002b357607f821691505b60208210811415620002ca57620002c96200026b565b5b50919050565b61331980620002e06000396000f3fe608060405234801561001057600080fd5b50600436106100f55760003560e01c80636352211e11610097578063b88d4fde11610066578063b88d4fde14610284578063c7545849146102a0578063c87b56dd146102bc578063e985e9c5146102ec576100f5565b80636352211e146101ea57806370a082311461021a57806395d89b411461024a578063a22cb46514610268576100f5565b8063095ea7b3116100d3578063095ea7b314610178578063202e37401461019457806323b872dd146101b257806342842e0e146101ce576100f5565b806301ffc9a7146100fa57806306fdde031461012a578063081812fc14610148575b600080fd5b610114600480360381019061010f9190611e8e565b61031c565b6040516101219190611ed6565b60405180910390f35b6101326103fe565b60405161013f9190611f8a565b60405180910390f35b610162600480360381019061015d9190611fe2565b610490565b60405161016f9190612050565b60405180910390f35b610192600480360381019061018d9190612097565b610515565b005b61019c61062d565b6040516101a99190612285565b60405180910390f35b6101cc60048036038101906101c791906122a7565b610988565b005b6101e860048036038101906101e391906122a7565b6109e8565b005b61020460048036038101906101ff9190611fe2565b610a08565b6040516102119190612050565b60405180910390f35b610234600480360381019061022f91906122fa565b610aba565b6040516102419190612336565b60405180910390f35b610252610b72565b60405161025f9190611f8a565b60405180910390f35b610282600480360381019061027d919061237d565b610c04565b005b61029e600480360381019061029991906124f2565b610c1a565b005b6102ba60048036038101906102b59190612616565b610c7c565b005b6102d660048036038101906102d19190611fe2565b610e86565b6040516102e39190611f8a565b60405180910390f35b6103066004803603810190610301919061265f565b610fd8565b6040516103139190611ed6565b60405180910390f35b60007f80ac58cd000000000000000000000000000000000000000000000000000000007bffffffffffffffffffffffffffffffffffffffffffffffffffffffff1916827bffffffffffffffffffffffffffffffffffffffffffffffffffffffff191614806103e757507f5b5e139f000000000000000000000000000000000000000000000000000000007bffffffffffffffffffffffffffffffffffffffffffffffffffffffff1916827bffffffffffffffffffffffffffffffffffffffffffffffffffffffff1916145b806103f757506103f68261106c565b5b9050919050565b60606000805461040d906126ce565b80601f0160208091040260200160405190810160405280929190818152602001828054610439906126ce565b80156104865780601f1061045b57610100808354040283529160200191610486565b820191906000526020600020905b81548152906001019060200180831161046957829003601f168201915b5050505050905090565b600061049b826110d6565b6104da576040517f08c379a00000000000000000000000000000000000000000000000000000000081526004016104d190612772565b60405180910390fd5b6004600083815260200190815260200160002060009054906101000a900473ffffffffffffffffffffffffffffffffffffffff169050919050565b600061052082610a08565b90508073ffffffffffffffffffffffffffffffffffffffff168373ffffffffffffffffffffffffffffffffffffffff161415610591576040517f08c379a000000000000000000000000000000000000000000000000000000000815260040161058890612804565b60405180910390fd5b8073ffffffffffffffffffffffffffffffffffffffff166105b0611142565b73ffffffffffffffffffffffffffffffffffffffff1614806105df57506105de816105d9611142565b610fd8565b5b61061e576040517f08c379a000000000000000000000000000000000000000000000000000000000815260040161061590612896565b60405180910390fd5b610628838361114a565b505050565b6060600061063b6007611203565b905060008060005b838110156106e4573373ffffffffffffffffffffffffffffffffffffffff166009600060018461067391906128e5565b815260200190815260200160002060020160009054906101000a900473ffffffffffffffffffffffffffffffffffffffff1673ffffffffffffffffffffffffffffffffffffffff1614156106d1576001836106ce91906128e5565b92505b80806106dc9061293b565b915050610643565b5060008267ffffffffffffffff811115610701576107006123c7565b5b60405190808252806020026020018201604052801561073a57816020015b610727611d2b565b81526020019060019003908161071f5790505b50905060005b8481101561097d573373ffffffffffffffffffffffffffffffffffffffff166009600060018461077091906128e5565b815260200190815260200160002060020160009054906101000a900473ffffffffffffffffffffffffffffffffffffffff1673ffffffffffffffffffffffffffffffffffffffff16141561096a5760006001826107cd91906128e5565b9050600060096000838152602001908152602001600020905080604051806080016040529081600082015481526020016001820160009054906101000a900473ffffffffffffffffffffffffffffffffffffffff1673ffffffffffffffffffffffffffffffffffffffff1673ffffffffffffffffffffffffffffffffffffffff1681526020016002820160009054906101000a900473ffffffffffffffffffffffffffffffffffffffff1673ffffffffffffffffffffffffffffffffffffffff1673ffffffffffffffffffffffffffffffffffffffff1681526020016003820180546108b8906126ce565b80601f01602080910402602001604051908101604052809291908181526020018280546108e4906126ce565b80156109315780601f1061090657610100808354040283529160200191610931565b820191906000526020600020905b81548152906001019060200180831161091457829003601f168201915b50505050508152505084868151811061094d5761094c612984565b5b602002602001018190525060018561096591906128e5565b945050505b80806109759061293b565b915050610740565b508094505050505090565b610999610993611142565b82611211565b6109d8576040517f08c379a00000000000000000000000000000000000000000000000000000000081526004016109cf90612a25565b60405180910390fd5b6109e38383836112ef565b505050565b610a0383838360405180602001604052806000815250610c1a565b505050565b6000806002600084815260200190815260200160002060009054906101000a900473ffffffffffffffffffffffffffffffffffffffff169050600073ffffffffffffffffffffffffffffffffffffffff168173ffffffffffffffffffffffffffffffffffffffff161415610ab1576040517f08c379a0000000000000000000000000000000000000000000000000000000008152600401610aa890612ab7565b60405180910390fd5b80915050919050565b60008073ffffffffffffffffffffffffffffffffffffffff168273ffffffffffffffffffffffffffffffffffffffff161415610b2b576040517f08c379a0000000000000000000000000000000000000000000000000000000008152600401610b2290612b49565b60405180910390fd5b600360008373ffffffffffffffffffffffffffffffffffffffff1673ffffffffffffffffffffffffffffffffffffffff168152602001908152602001600020549050919050565b606060018054610b81906126ce565b80601f0160208091040260200160405190810160405280929190818152602001828054610bad906126ce565b8015610bfa5780601f10610bcf57610100808354040283529160200191610bfa565b820191906000526020600020905b815481529060010190602001808311610bdd57829003601f168201915b5050505050905090565b610c16610c0f611142565b838361154b565b5050565b610c2b610c25611142565b83611211565b610c6a576040517f08c379a0000000000000000000000000000000000000000000000000000000008152600401610c6190612a25565b60405180910390fd5b610c76848484846116b8565b50505050565b610c866007611714565b6000610c926007611203565b90506040518060800160405280828152602001600860009054906101000a900473ffffffffffffffffffffffffffffffffffffffff1673ffffffffffffffffffffffffffffffffffffffff1681526020013373ffffffffffffffffffffffffffffffffffffffff16815260200183815250600960008381526020019081526020016000206000820151816000015560208201518160010160006101000a81548173ffffffffffffffffffffffffffffffffffffffff021916908373ffffffffffffffffffffffffffffffffffffffff16021790555060408201518160020160006101000a81548173ffffffffffffffffffffffffffffffffffffffff021916908373ffffffffffffffffffffffffffffffffffffffff1602179055506060820151816003019080519060200190610dca929190611d7f565b50905050610dd8338261172a565b610de281836118f8565b610e0f600860009054906101000a900473ffffffffffffffffffffffffffffffffffffffff166001610c04565b600860009054906101000a900473ffffffffffffffffffffffffffffffffffffffff1673ffffffffffffffffffffffffffffffffffffffff16817f461dbe6dab3d8f7ecc5bbc746dadca91551b532e562ec5d63e010646c60e1b6b3385604051610e7a929190612b69565b60405180910390a35050565b6060610e91826110d6565b610ed0576040517f08c379a0000000000000000000000000000000000000000000000000000000008152600401610ec790612c0b565b60405180910390fd5b6000600660008481526020019081526020016000208054610ef0906126ce565b80601f0160208091040260200160405190810160405280929190818152602001828054610f1c906126ce565b8015610f695780601f10610f3e57610100808354040283529160200191610f69565b820191906000526020600020905b815481529060010190602001808311610f4c57829003601f168201915b505050505090506000610f7a61196c565b9050600081511415610f90578192505050610fd3565b600082511115610fc5578082604051602001610fad929190612c67565b60405160208183030381529060405292505050610fd3565b610fce84611983565b925050505b919050565b6000600560008473ffffffffffffffffffffffffffffffffffffffff1673ffffffffffffffffffffffffffffffffffffffff16815260200190815260200160002060008373ffffffffffffffffffffffffffffffffffffffff1673ffffffffffffffffffffffffffffffffffffffff16815260200190815260200160002060009054906101000a900460ff16905092915050565b60007f01ffc9a7000000000000000000000000000000000000000000000000000000007bffffffffffffffffffffffffffffffffffffffffffffffffffffffff1916827bffffffffffffffffffffffffffffffffffffffffffffffffffffffff1916149050919050565b60008073ffffffffffffffffffffffffffffffffffffffff166002600084815260200190815260200160002060009054906101000a900473ffffffffffffffffffffffffffffffffffffffff1673ffffffffffffffffffffffffffffffffffffffff1614159050919050565b600033905090565b816004600083815260200190815260200160002060006101000a81548173ffffffffffffffffffffffffffffffffffffffff021916908373ffffffffffffffffffffffffffffffffffffffff160217905550808273ffffffffffffffffffffffffffffffffffffffff166111bd83610a08565b73ffffffffffffffffffffffffffffffffffffffff167f8c5be1e5ebec7d5bd14f71427d1e84f3dd0314c0f7b2291e5b200ac8c7c3b92560405160405180910390a45050565b600081600001549050919050565b600061121c826110d6565b61125b576040517f08c379a000000000000000000000000000000000000000000000000000000000815260040161125290612cfd565b60405180910390fd5b600061126683610a08565b90508073ffffffffffffffffffffffffffffffffffffffff168473ffffffffffffffffffffffffffffffffffffffff1614806112d557508373ffffffffffffffffffffffffffffffffffffffff166112bd84610490565b73ffffffffffffffffffffffffffffffffffffffff16145b806112e657506112e58185610fd8565b5b91505092915050565b8273ffffffffffffffffffffffffffffffffffffffff1661130f82610a08565b73ffffffffffffffffffffffffffffffffffffffff1614611365576040517f08c379a000000000000000000000000000000000000000000000000000000000815260040161135c90612d8f565b60405180910390fd5b600073ffffffffffffffffffffffffffffffffffffffff168273ffffffffffffffffffffffffffffffffffffffff1614156113d5576040517f08c379a00000000000000000000000000000000000000000000000000000000081526004016113cc90612e21565b60405180910390fd5b6113e0838383611a2a565b6113eb60008261114a565b6001600360008573ffffffffffffffffffffffffffffffffffffffff1673ffffffffffffffffffffffffffffffffffffffff168152602001908152602001600020600082825461143b9190612e41565b925050819055506001600360008473ffffffffffffffffffffffffffffffffffffffff1673ffffffffffffffffffffffffffffffffffffffff168152602001908152602001600020600082825461149291906128e5565b92505081905550816002600083815260200190815260200160002060006101000a81548173ffffffffffffffffffffffffffffffffffffffff021916908373ffffffffffffffffffffffffffffffffffffffff160217905550808273ffffffffffffffffffffffffffffffffffffffff168473ffffffffffffffffffffffffffffffffffffffff167fddf252ad1be2c89b69c2b068fc378daa952ba7f163c4a11628f55a4df523b3ef60405160405180910390a4505050565b8173ffffffffffffffffffffffffffffffffffffffff168373ffffffffffffffffffffffffffffffffffffffff1614156115ba576040517f08c379a00000000000000000000000000000000000000000000000000000000081526004016115b190612ec1565b60405180910390fd5b80600560008573ffffffffffffffffffffffffffffffffffffffff1673ffffffffffffffffffffffffffffffffffffffff16815260200190815260200160002060008473ffffffffffffffffffffffffffffffffffffffff1673ffffffffffffffffffffffffffffffffffffffff16815260200190815260200160002060006101000a81548160ff0219169083151502179055508173ffffffffffffffffffffffffffffffffffffffff168373ffffffffffffffffffffffffffffffffffffffff167f17307eab39ab6107e8899845ad3d59bd9653f200f220920489ca2b5937696c31836040516116ab9190611ed6565b60405180910390a3505050565b6116c38484846112ef565b6116cf84848484611a2f565b61170e576040517f08c379a000000000000000000000000000000000000000000000000000000000815260040161170590612f53565b60405180910390fd5b50505050565b6001816000016000828254019250508190555050565b600073ffffffffffffffffffffffffffffffffffffffff168273ffffffffffffffffffffffffffffffffffffffff16141561179a576040517f08c379a000000000000000000000000000000000000000000000000000000000815260040161179190612fbf565b60405180910390fd5b6117a3816110d6565b156117e3576040517f08c379a00000000000000000000000000000000000000000000000000000000081526004016117da9061302b565b60405180910390fd5b6117ef60008383611a2a565b6001600360008473ffffffffffffffffffffffffffffffffffffffff1673ffffffffffffffffffffffffffffffffffffffff168152602001908152602001600020600082825461183f91906128e5565b92505081905550816002600083815260200190815260200160002060006101000a81548173ffffffffffffffffffffffffffffffffffffffff021916908373ffffffffffffffffffffffffffffffffffffffff160217905550808273ffffffffffffffffffffffffffffffffffffffff16600073ffffffffffffffffffffffffffffffffffffffff167fddf252ad1be2c89b69c2b068fc378daa952ba7f163c4a11628f55a4df523b3ef60405160405180910390a45050565b611901826110d6565b611940576040517f08c379a0000000000000000000000000000000000000000000000000000000008152600401611937906130bd565b60405180910390fd5b80600660008481526020019081526020016000209080519060200190611967929190611d7f565b505050565b606060405180602001604052806000815250905090565b606061198e826110d6565b6119cd576040517f08c379a00000000000000000000000000000000000000000000000000000000081526004016119c49061314f565b60405180910390fd5b60006119d761196c565b905060008151116119f75760405180602001604052806000815250611a22565b80611a0184611bb7565b604051602001611a12929190612c67565b6040516020818303038152906040525b915050919050565b505050565b6000611a508473ffffffffffffffffffffffffffffffffffffffff16611d18565b15611baa578373ffffffffffffffffffffffffffffffffffffffff1663150b7a02611a79611142565b8786866040518563ffffffff1660e01b8152600401611a9b94939291906131c4565b6020604051808303816000875af1925050508015611ad757506040513d601f19601f82011682018060405250810190611ad49190613225565b60015b611b5a573d8060008114611b07576040519150601f19603f3d011682016040523d82523d6000602084013e611b0c565b606091505b50600081511415611b52576040517f08c379a0000000000000000000000000000000000000000000000000000000008152600401611b4990612f53565b60405180910390fd5b805181602001fd5b63150b7a0260e01b7bffffffffffffffffffffffffffffffffffffffffffffffffffffffff1916817bffffffffffffffffffffffffffffffffffffffffffffffffffffffff191614915050611baf565b600190505b949350505050565b60606000821415611bff576040518060400160405280600181526020017f30000000000000000000000000000000000000000000000000000000000000008152509050611d13565b600082905060005b60008214611c31578080611c1a9061293b565b915050600a82611c2a9190613281565b9150611c07565b60008167ffffffffffffffff811115611c4d57611c4c6123c7565b5b6040519080825280601f01601f191660200182016040528015611c7f5781602001600182028036833780820191505090505b5090505b60008514611d0c57600182611c989190612e41565b9150600a85611ca791906132b2565b6030611cb391906128e5565b60f81b818381518110611cc957611cc8612984565b5b60200101907effffffffffffffffffffffffffffffffffffffffffffffffffffffffffffff1916908160001a905350600a85611d059190613281565b9450611c83565b8093505050505b919050565b600080823b905060008111915050919050565b604051806080016040528060008152602001600073ffffffffffffffffffffffffffffffffffffffff168152602001600073ffffffffffffffffffffffffffffffffffffffff168152602001606081525090565b828054611d8b906126ce565b90600052602060002090601f016020900481019282611dad5760008555611df4565b82601f10611dc657805160ff1916838001178555611df4565b82800160010185558215611df4579182015b82811115611df3578251825591602001919060010190611dd8565b5b509050611e019190611e05565b5090565b5b80821115611e1e576000816000905550600101611e06565b5090565b6000604051905090565b600080fd5b600080fd5b60007fffffffff0000000000000000000000000000000000000000000000000000000082169050919050565b611e6b81611e36565b8114611e7657600080fd5b50565b600081359050611e8881611e62565b92915050565b600060208284031215611ea457611ea3611e2c565b5b6000611eb284828501611e79565b91505092915050565b60008115159050919050565b611ed081611ebb565b82525050565b6000602082019050611eeb6000830184611ec7565b92915050565b600081519050919050565b600082825260208201905092915050565b60005b83811015611f2b578082015181840152602081019050611f10565b83811115611f3a576000848401525b50505050565b6000601f19601f8301169050919050565b6000611f5c82611ef1565b611f668185611efc565b9350611f76818560208601611f0d565b611f7f81611f40565b840191505092915050565b60006020820190508181036000830152611fa48184611f51565b905092915050565b6000819050919050565b611fbf81611fac565b8114611fca57600080fd5b50565b600081359050611fdc81611fb6565b92915050565b600060208284031215611ff857611ff7611e2c565b5b600061200684828501611fcd565b91505092915050565b600073ffffffffffffffffffffffffffffffffffffffff82169050919050565b600061203a8261200f565b9050919050565b61204a8161202f565b82525050565b60006020820190506120656000830184612041565b92915050565b6120748161202f565b811461207f57600080fd5b50565b6000813590506120918161206b565b92915050565b600080604083850312156120ae576120ad611e2c565b5b60006120bc85828601612082565b92505060206120cd85828601611fcd565b9150509250929050565b600081519050919050565b600082825260208201905092915050565b6000819050602082019050919050565b61210c81611fac565b82525050565b61211b8161202f565b82525050565b600061212c8261200f565b9050919050565b61213c81612121565b82525050565b600082825260208201905092915050565b600061215e82611ef1565b6121688185612142565b9350612178818560208601611f0d565b61218181611f40565b840191505092915050565b60006080830160008301516121a46000860182612103565b5060208301516121b76020860182612112565b5060408301516121ca6040860182612133565b50606083015184820360608601526121e28282612153565b9150508091505092915050565b60006121fb838361218c565b905092915050565b6000602082019050919050565b600061221b826120d7565b61222581856120e2565b935083602082028501612237856120f3565b8060005b85811015612273578484038952815161225485826121ef565b945061225f83612203565b925060208a0199505060018101905061223b565b50829750879550505050505092915050565b6000602082019050818103600083015261229f8184612210565b905092915050565b6000806000606084860312156122c0576122bf611e2c565b5b60006122ce86828701612082565b93505060206122df86828701612082565b92505060406122f086828701611fcd565b9150509250925092565b6000602082840312156123105761230f611e2c565b5b600061231e84828501612082565b91505092915050565b61233081611fac565b82525050565b600060208201905061234b6000830184612327565b92915050565b61235a81611ebb565b811461236557600080fd5b50565b60008135905061237781612351565b92915050565b6000806040838503121561239457612393611e2c565b5b60006123a285828601612082565b92505060206123b385828601612368565b9150509250929050565b600080fd5b600080fd5b7f4e487b7100000000000000000000000000000000000000000000000000000000600052604160045260246000fd5b6123ff82611f40565b810181811067ffffffffffffffff8211171561241e5761241d6123c7565b5b80604052505050565b6000612431611e22565b905061243d82826123f6565b919050565b600067ffffffffffffffff82111561245d5761245c6123c7565b5b61246682611f40565b9050602081019050919050565b82818337600083830152505050565b600061249561249084612442565b612427565b9050828152602081018484840111156124b1576124b06123c2565b5b6124bc848285612473565b509392505050565b600082601f8301126124d9576124d86123bd565b5b81356124e9848260208601612482565b91505092915050565b6000806000806080858703121561250c5761250b611e2c565b5b600061251a87828801612082565b945050602061252b87828801612082565b935050604061253c87828801611fcd565b925050606085013567ffffffffffffffff81111561255d5761255c611e31565b5b612569878288016124c4565b91505092959194509250565b600067ffffffffffffffff8211156125905761258f6123c7565b5b61259982611f40565b9050602081019050919050565b60006125b96125b484612575565b612427565b9050828152602081018484840111156125d5576125d46123c2565b5b6125e0848285612473565b509392505050565b600082601f8301126125fd576125fc6123bd565b5b813561260d8482602086016125a6565b91505092915050565b60006020828403121561262c5761262b611e2c565b5b600082013567ffffffffffffffff81111561264a57612649611e31565b5b612656848285016125e8565b91505092915050565b6000806040838503121561267657612675611e2c565b5b600061268485828601612082565b925050602061269585828601612082565b9150509250929050565b7f4e487b7100000000000000000000000000000000000000000000000000000000600052602260045260246000fd5b600060028204905060018216806126e657607f821691505b602082108114156126fa576126f961269f565b5b50919050565b7f4552433732313a20617070726f76656420717565727920666f72206e6f6e657860008201527f697374656e7420746f6b656e0000000000000000000000000000000000000000602082015250565b600061275c602c83611efc565b915061276782612700565b604082019050919050565b6000602082019050818103600083015261278b8161274f565b9050919050565b7f4552433732313a20617070726f76616c20746f2063757272656e74206f776e6560008201527f7200000000000000000000000000000000000000000000000000000000000000602082015250565b60006127ee602183611efc565b91506127f982612792565b604082019050919050565b6000602082019050818103600083015261281d816127e1565b9050919050565b7f4552433732313a20617070726f76652063616c6c6572206973206e6f74206f7760008201527f6e6572206e6f7220617070726f76656420666f7220616c6c0000000000000000602082015250565b6000612880603883611efc565b915061288b82612824565b604082019050919050565b600060208201905081810360008301526128af81612873565b9050919050565b7f4e487b7100000000000000000000000000000000000000000000000000000000600052601160045260246000fd5b60006128f082611fac565b91506128fb83611fac565b9250827fffffffffffffffffffffffffffffffffffffffffffffffffffffffffffffffff038211156129305761292f6128b6565b5b828201905092915050565b600061294682611fac565b91507fffffffffffffffffffffffffffffffffffffffffffffffffffffffffffffffff821415612979576129786128b6565b5b600182019050919050565b7f4e487b7100000000000000000000000000000000000000000000000000000000600052603260045260246000fd5b7f4552433732313a207472616e736665722063616c6c6572206973206e6f74206f60008201527f776e6572206e6f7220617070726f766564000000000000000000000000000000602082015250565b6000612a0f603183611efc565b9150612a1a826129b3565b604082019050919050565b60006020820190508181036000830152612a3e81612a02565b9050919050565b7f4552433732313a206f776e657220717565727920666f72206e6f6e657869737460008201527f656e7420746f6b656e0000000000000000000000000000000000000000000000602082015250565b6000612aa1602983611efc565b9150612aac82612a45565b604082019050919050565b60006020820190508181036000830152612ad081612a94565b9050919050565b7f4552433732313a2062616c616e636520717565727920666f7220746865207a6560008201527f726f206164647265737300000000000000000000000000000000000000000000602082015250565b6000612b33602a83611efc565b9150612b3e82612ad7565b604082019050919050565b60006020820190508181036000830152612b6281612b26565b9050919050565b6000604082019050612b7e6000830185612041565b8181036020830152612b908184611f51565b90509392505050565b7f45524337323155524953746f726167653a2055524920717565727920666f722060008201527f6e6f6e6578697374656e7420746f6b656e000000000000000000000000000000602082015250565b6000612bf5603183611efc565b9150612c0082612b99565b604082019050919050565b60006020820190508181036000830152612c2481612be8565b9050919050565b600081905092915050565b6000612c4182611ef1565b612c4b8185612c2b565b9350612c5b818560208601611f0d565b80840191505092915050565b6000612c738285612c36565b9150612c7f8284612c36565b91508190509392505050565b7f4552433732313a206f70657261746f7220717565727920666f72206e6f6e657860008201527f697374656e7420746f6b656e0000000000000000000000000000000000000000602082015250565b6000612ce7602c83611efc565b9150612cf282612c8b565b604082019050919050565b60006020820190508181036000830152612d1681612cda565b9050919050565b7f4552433732313a207472616e73666572206f6620746f6b656e2074686174206960008201527f73206e6f74206f776e0000000000000000000000000000000000000000000000602082015250565b6000612d79602983611efc565b9150612d8482612d1d565b604082019050919050565b60006020820190508181036000830152612da881612d6c565b9050919050565b7f4552433732313a207472616e7366657220746f20746865207a65726f2061646460008201527f7265737300000000000000000000000000000000000000000000000000000000602082015250565b6000612e0b602483611efc565b9150612e1682612daf565b604082019050919050565b60006020820190508181036000830152612e3a81612dfe565b9050919050565b6000612e4c82611fac565b9150612e5783611fac565b925082821015612e6a57612e696128b6565b5b828203905092915050565b7f4552433732313a20617070726f766520746f2063616c6c657200000000000000600082015250565b6000612eab601983611efc565b9150612eb682612e75565b602082019050919050565b60006020820190508181036000830152612eda81612e9e565b9050919050565b7f4552433732313a207472616e7366657220746f206e6f6e20455243373231526560008201527f63656976657220696d706c656d656e7465720000000000000000000000000000602082015250565b6000612f3d603283611efc565b9150612f4882612ee1565b604082019050919050565b60006020820190508181036000830152612f6c81612f30565b9050919050565b7f4552433732313a206d696e7420746f20746865207a65726f2061646472657373600082015250565b6000612fa9602083611efc565b9150612fb482612f73565b602082019050919050565b60006020820190508181036000830152612fd881612f9c565b9050919050565b7f4552433732313a20746f6b656e20616c7265616479206d696e74656400000000600082015250565b6000613015601c83611efc565b915061302082612fdf565b602082019050919050565b6000602082019050818103600083015261304481613008565b9050919050565b7f45524337323155524953746f726167653a2055524920736574206f66206e6f6e60008201527f6578697374656e7420746f6b656e000000000000000000000000000000000000602082015250565b60006130a7602e83611efc565b91506130b28261304b565b604082019050919050565b600060208201905081810360008301526130d68161309a565b9050919050565b7f4552433732314d657461646174613a2055524920717565727920666f72206e6f60008201527f6e6578697374656e7420746f6b656e0000000000000000000000000000000000602082015250565b6000613139602f83611efc565b9150613144826130dd565b604082019050919050565b600060208201905081810360008301526131688161312c565b9050919050565b600081519050919050565b600082825260208201905092915050565b60006131968261316f565b6131a0818561317a565b93506131b0818560208601611f0d565b6131b981611f40565b840191505092915050565b60006080820190506131d96000830187612041565b6131e66020830186612041565b6131f36040830185612327565b8181036060830152613205818461318b565b905095945050505050565b60008151905061321f81611e62565b92915050565b60006020828403121561323b5761323a611e2c565b5b600061324984828501613210565b91505092915050565b7f4e487b7100000000000000000000000000000000000000000000000000000000600052601260045260246000fd5b600061328c82611fac565b915061329783611fac565b9250826132a7576132a6613252565b5b828204905092915050565b60006132bd82611fac565b91506132c883611fac565b9250826132d8576132d7613252565b5b82820690509291505056fea2646970667358221220d7af40d00e9dfdd0a4cf9b2340f7c13525a7c18493f2b1480b9c05b660f907ee64736f6c634300080a0033",
  "immutableReferences": {},
  "source": "// contracts/nft.sol\n// SPDX-License-Identifier: MIT OR Apache-2.0\npragma solidity ^0.8.4;\n\nimport '@openzeppelin/contracts/utils/Counters.sol';\nimport '@openzeppelin/contracts/token/ERC721/extensions/ERC721URIStorage.sol';\nimport '@openzeppelin/contracts/token/ERC721/ERC721.sol';\n\ncontract facesNFT is ERC721URIStorage {\n  using Counters for Counters.Counter;\n  Counters.Counter private _tokenIds;\n  address contractAddress;\n\n  constructor(address marketplaceAddress) ERC721('facesNFT', 'FCS') {\n    contractAddress = marketplaceAddress;\n  }\n\n  struct NFTItem {\n    uint256 itemId;\n    address nftContract;\n    address payable owner;\n    string tokenURI;\n  }\n\n  mapping(uint256 => NFTItem) private idToNFTItem;\n\n  event NFTItemCreated(\n    uint256 indexed itemId,\n    address indexed nftContract,\n    address owner,\n    string tokenURI\n  );\n\n  function mintItem(string memory tokenURI) public {\n    _tokenIds.increment();\n    uint256 newItemId = _tokenIds.current();\n\n    idToNFTItem[newItemId] = NFTItem(\n      newItemId,\n      contractAddress,\n      payable(msg.sender),\n      tokenURI\n    );\n    _mint(msg.sender, newItemId);\n    _setTokenURI(newItemId, tokenURI);\n    setApprovalForAll(contractAddress, true);\n    emit NFTItemCreated(newItemId, contractAddress, msg.sender, tokenURI);\n  }\n\n  /* Returns only items that a user has minted */\n  function fetchMyNFTs() public view returns (NFTItem[] memory) {\n    uint256 totalItemCount = _tokenIds.current();\n    uint256 itemCount = 0;\n    uint256 currentIndex = 0;\n\n    for (uint256 i = 0; i < totalItemCount; i++) {\n      if (idToNFTItem[i + 1].owner == msg.sender) {\n        itemCount += 1;\n      }\n    }\n\n    NFTItem[] memory items = new NFTItem[](itemCount);\n    for (uint256 i = 0; i < totalItemCount; i++) {\n      if (idToNFTItem[i + 1].owner == msg.sender) {\n        uint256 currentId = i + 1;\n        NFTItem storage currentItem = idToNFTItem[currentId];\n        items[currentIndex] = currentItem;\n        currentIndex += 1;\n      }\n    }\n    return items;\n  }\n}\n",
  "sourcePath": "/Users/loliveira/Documents/nft-engine/project/contracts/nft.sol",
  "compiler": {
    "name": "solc",
    "version": "0.8.10+commit.fc410830.Emscripten.clang"
  },
  "schemaVersion": "3.4.4",
  "updatedAt": "2022-01-13T12:28:13.655Z",
  "networkType": "ethereum",
  "devdoc": {
    "kind": "dev",
    "methods": {
      "approve(address,uint256)": {
        "details": "See {IERC721-approve}."
      },
      "balanceOf(address)": {
        "details": "See {IERC721-balanceOf}."
      },
      "getApproved(uint256)": {
        "details": "See {IERC721-getApproved}."
      },
      "isApprovedForAll(address,address)": {
        "details": "See {IERC721-isApprovedForAll}."
      },
      "name()": {
        "details": "See {IERC721Metadata-name}."
      },
      "ownerOf(uint256)": {
        "details": "See {IERC721-ownerOf}."
      },
      "safeTransferFrom(address,address,uint256)": {
        "details": "See {IERC721-safeTransferFrom}."
      },
      "safeTransferFrom(address,address,uint256,bytes)": {
        "details": "See {IERC721-safeTransferFrom}."
      },
      "setApprovalForAll(address,bool)": {
        "details": "See {IERC721-setApprovalForAll}."
      },
      "supportsInterface(bytes4)": {
        "details": "See {IERC165-supportsInterface}."
      },
      "symbol()": {
        "details": "See {IERC721Metadata-symbol}."
      },
      "tokenURI(uint256)": {
        "details": "See {IERC721Metadata-tokenURI}."
      },
      "transferFrom(address,address,uint256)": {
        "details": "See {IERC721-transferFrom}."
      }
    },
    "version": 1
  },
  "userdoc": {
    "kind": "user",
    "methods": {},
    "version": 1
  }
}