{
  "contractName": "facesNFT",
  "abi": [
    {
      "inputs": [
        {
          "internalType": "string",
          "name": "name",
          "type": "string"
        },
        {
          "internalType": "string",
          "name": "symbol",
          "type": "string"
        },
        {
          "internalType": "string",
          "name": "baseTokenURI",
          "type": "string"
        },
        {
          "internalType": "uint256",
          "name": "mintPrice",
          "type": "uint256"
        },
        {
          "internalType": "uint256",
          "name": "max",
          "type": "uint256"
        },
        {
          "internalType": "address",
          "name": "wallet",
          "type": "address"
        },
        {
          "internalType": "address",
          "name": "admin",
          "type": "address"
        }
      ],
      "stateMutability": "nonpayable",
      "type": "constructor"
    },
    {
      "anonymous": false,
      "inputs": [
        {
          "indexed": true,
          "internalType": "address",
          "name": "owner",
          "type": "address"
        },
        {
          "indexed": true,
          "internalType": "address",
          "name": "approved",
          "type": "address"
        },
        {
          "indexed": true,
          "internalType": "uint256",
          "name": "tokenId",
          "type": "uint256"
        }
      ],
      "name": "Approval",
      "type": "event"
    },
    {
      "anonymous": false,
      "inputs": [
        {
          "indexed": true,
          "internalType": "address",
          "name": "owner",
          "type": "address"
        },
        {
          "indexed": true,
          "internalType": "address",
          "name": "operator",
          "type": "address"
        },
        {
          "indexed": false,
          "internalType": "bool",
          "name": "approved",
          "type": "bool"
        }
      ],
      "name": "ApprovalForAll",
      "type": "event"
    },
    {
      "anonymous": false,
      "inputs": [
        {
          "indexed": true,
          "internalType": "address",
          "name": "previousOwner",
          "type": "address"
        },
        {
          "indexed": true,
          "internalType": "address",
          "name": "newOwner",
          "type": "address"
        }
      ],
      "name": "OwnershipTransferred",
      "type": "event"
    },
    {
      "anonymous": false,
      "inputs": [
        {
          "indexed": true,
          "internalType": "bytes32",
          "name": "role",
          "type": "bytes32"
        },
        {
          "indexed": true,
          "internalType": "bytes32",
          "name": "previousAdminRole",
          "type": "bytes32"
        },
        {
          "indexed": true,
          "internalType": "bytes32",
          "name": "newAdminRole",
          "type": "bytes32"
        }
      ],
      "name": "RoleAdminChanged",
      "type": "event"
    },
    {
      "anonymous": false,
      "inputs": [
        {
          "indexed": true,
          "internalType": "bytes32",
          "name": "role",
          "type": "bytes32"
        },
        {
          "indexed": true,
          "internalType": "address",
          "name": "account",
          "type": "address"
        },
        {
          "indexed": true,
          "internalType": "address",
          "name": "sender",
          "type": "address"
        }
      ],
      "name": "RoleGranted",
      "type": "event"
    },
    {
      "anonymous": false,
      "inputs": [
        {
          "indexed": true,
          "internalType": "bytes32",
          "name": "role",
          "type": "bytes32"
        },
        {
          "indexed": true,
          "internalType": "address",
          "name": "account",
          "type": "address"
        },
        {
          "indexed": true,
          "internalType": "address",
          "name": "sender",
          "type": "address"
        }
      ],
      "name": "RoleRevoked",
      "type": "event"
    },
    {
      "anonymous": false,
      "inputs": [
        {
          "indexed": true,
          "internalType": "address",
          "name": "from",
          "type": "address"
        },
        {
          "indexed": true,
          "internalType": "address",
          "name": "to",
          "type": "address"
        },
        {
          "indexed": true,
          "internalType": "uint256",
          "name": "tokenId",
          "type": "uint256"
        }
      ],
      "name": "Transfer",
      "type": "event"
    },
    {
      "inputs": [],
      "name": "DEFAULT_ADMIN_ROLE",
      "outputs": [
        {
          "internalType": "bytes32",
          "name": "",
          "type": "bytes32"
        }
      ],
      "stateMutability": "view",
      "type": "function"
    },
    {
      "inputs": [],
      "name": "_tokenIdTracker",
      "outputs": [
        {
          "internalType": "uint256",
          "name": "_value",
          "type": "uint256"
        }
      ],
      "stateMutability": "view",
      "type": "function"
    },
    {
      "inputs": [
        {
          "internalType": "address",
          "name": "to",
          "type": "address"
        },
        {
          "internalType": "uint256",
          "name": "tokenId",
          "type": "uint256"
        }
      ],
      "name": "approve",
      "outputs": [],
      "stateMutability": "nonpayable",
      "type": "function"
    },
    {
      "inputs": [
        {
          "internalType": "address",
          "name": "owner",
          "type": "address"
        }
      ],
      "name": "balanceOf",
      "outputs": [
        {
          "internalType": "uint256",
          "name": "",
          "type": "uint256"
        }
      ],
      "stateMutability": "view",
      "type": "function"
    },
    {
      "inputs": [
        {
          "internalType": "uint256",
          "name": "tokenId",
          "type": "uint256"
        }
      ],
      "name": "getApproved",
      "outputs": [
        {
          "internalType": "address",
          "name": "",
          "type": "address"
        }
      ],
      "stateMutability": "view",
      "type": "function"
    },
    {
      "inputs": [
        {
          "internalType": "bytes32",
          "name": "role",
          "type": "bytes32"
        }
      ],
      "name": "getRoleAdmin",
      "outputs": [
        {
          "internalType": "bytes32",
          "name": "",
          "type": "bytes32"
        }
      ],
      "stateMutability": "view",
      "type": "function"
    },
    {
      "inputs": [
        {
          "internalType": "bytes32",
          "name": "role",
          "type": "bytes32"
        },
        {
          "internalType": "uint256",
          "name": "index",
          "type": "uint256"
        }
      ],
      "name": "getRoleMember",
      "outputs": [
        {
          "internalType": "address",
          "name": "",
          "type": "address"
        }
      ],
      "stateMutability": "view",
      "type": "function"
    },
    {
      "inputs": [
        {
          "internalType": "bytes32",
          "name": "role",
          "type": "bytes32"
        }
      ],
      "name": "getRoleMemberCount",
      "outputs": [
        {
          "internalType": "uint256",
          "name": "",
          "type": "uint256"
        }
      ],
      "stateMutability": "view",
      "type": "function"
    },
    {
      "inputs": [
        {
          "internalType": "bytes32",
          "name": "role",
          "type": "bytes32"
        },
        {
          "internalType": "address",
          "name": "account",
          "type": "address"
        }
      ],
      "name": "grantRole",
      "outputs": [],
      "stateMutability": "nonpayable",
      "type": "function"
    },
    {
      "inputs": [
        {
          "internalType": "bytes32",
          "name": "role",
          "type": "bytes32"
        },
        {
          "internalType": "address",
          "name": "account",
          "type": "address"
        }
      ],
      "name": "hasRole",
      "outputs": [
        {
          "internalType": "bool",
          "name": "",
          "type": "bool"
        }
      ],
      "stateMutability": "view",
      "type": "function"
    },
    {
      "inputs": [
        {
          "internalType": "address",
          "name": "owner",
          "type": "address"
        },
        {
          "internalType": "address",
          "name": "operator",
          "type": "address"
        }
      ],
      "name": "isApprovedForAll",
      "outputs": [
        {
          "internalType": "bool",
          "name": "",
          "type": "bool"
        }
      ],
      "stateMutability": "view",
      "type": "function"
    },
    {
      "inputs": [],
      "name": "name",
      "outputs": [
        {
          "internalType": "string",
          "name": "",
          "type": "string"
        }
      ],
      "stateMutability": "view",
      "type": "function"
    },
    {
      "inputs": [],
      "name": "owner",
      "outputs": [
        {
          "internalType": "address",
          "name": "",
          "type": "address"
        }
      ],
      "stateMutability": "view",
      "type": "function"
    },
    {
      "inputs": [
        {
          "internalType": "uint256",
          "name": "tokenId",
          "type": "uint256"
        }
      ],
      "name": "ownerOf",
      "outputs": [
        {
          "internalType": "address",
          "name": "",
          "type": "address"
        }
      ],
      "stateMutability": "view",
      "type": "function"
    },
    {
      "inputs": [],
      "name": "renounceOwnership",
      "outputs": [],
      "stateMutability": "nonpayable",
      "type": "function"
    },
    {
      "inputs": [
        {
          "internalType": "bytes32",
          "name": "role",
          "type": "bytes32"
        },
        {
          "internalType": "address",
          "name": "account",
          "type": "address"
        }
      ],
      "name": "renounceRole",
      "outputs": [],
      "stateMutability": "nonpayable",
      "type": "function"
    },
    {
      "inputs": [
        {
          "internalType": "bytes32",
          "name": "role",
          "type": "bytes32"
        },
        {
          "internalType": "address",
          "name": "account",
          "type": "address"
        }
      ],
      "name": "revokeRole",
      "outputs": [],
      "stateMutability": "nonpayable",
      "type": "function"
    },
    {
      "inputs": [
        {
          "internalType": "address",
          "name": "from",
          "type": "address"
        },
        {
          "internalType": "address",
          "name": "to",
          "type": "address"
        },
        {
          "internalType": "uint256",
          "name": "tokenId",
          "type": "uint256"
        }
      ],
      "name": "safeTransferFrom",
      "outputs": [],
      "stateMutability": "nonpayable",
      "type": "function"
    },
    {
      "inputs": [
        {
          "internalType": "address",
          "name": "from",
          "type": "address"
        },
        {
          "internalType": "address",
          "name": "to",
          "type": "address"
        },
        {
          "internalType": "uint256",
          "name": "tokenId",
          "type": "uint256"
        },
        {
          "internalType": "bytes",
          "name": "_data",
          "type": "bytes"
        }
      ],
      "name": "safeTransferFrom",
      "outputs": [],
      "stateMutability": "nonpayable",
      "type": "function"
    },
    {
      "inputs": [
        {
          "internalType": "address",
          "name": "operator",
          "type": "address"
        },
        {
          "internalType": "bool",
          "name": "approved",
          "type": "bool"
        }
      ],
      "name": "setApprovalForAll",
      "outputs": [],
      "stateMutability": "nonpayable",
      "type": "function"
    },
    {
      "inputs": [],
      "name": "symbol",
      "outputs": [
        {
          "internalType": "string",
          "name": "",
          "type": "string"
        }
      ],
      "stateMutability": "view",
      "type": "function"
    },
    {
      "inputs": [
        {
          "internalType": "uint256",
          "name": "index",
          "type": "uint256"
        }
      ],
      "name": "tokenByIndex",
      "outputs": [
        {
          "internalType": "uint256",
          "name": "",
          "type": "uint256"
        }
      ],
      "stateMutability": "view",
      "type": "function"
    },
    {
      "inputs": [
        {
          "internalType": "address",
          "name": "owner",
          "type": "address"
        },
        {
          "internalType": "uint256",
          "name": "index",
          "type": "uint256"
        }
      ],
      "name": "tokenOfOwnerByIndex",
      "outputs": [
        {
          "internalType": "uint256",
          "name": "",
          "type": "uint256"
        }
      ],
      "stateMutability": "view",
      "type": "function"
    },
    {
      "inputs": [],
      "name": "totalSupply",
      "outputs": [
        {
          "internalType": "uint256",
          "name": "",
          "type": "uint256"
        }
      ],
      "stateMutability": "view",
      "type": "function"
    },
    {
      "inputs": [
        {
          "internalType": "address",
          "name": "from",
          "type": "address"
        },
        {
          "internalType": "address",
          "name": "to",
          "type": "address"
        },
        {
          "internalType": "uint256",
          "name": "tokenId",
          "type": "uint256"
        }
      ],
      "name": "transferFrom",
      "outputs": [],
      "stateMutability": "nonpayable",
      "type": "function"
    },
    {
      "inputs": [
        {
          "internalType": "address",
          "name": "newOwner",
          "type": "address"
        }
      ],
      "name": "transferOwnership",
      "outputs": [],
      "stateMutability": "nonpayable",
      "type": "function"
    },
    {
      "inputs": [
        {
          "internalType": "string",
          "name": "baseURI",
          "type": "string"
        }
      ],
      "name": "setBaseURI",
      "outputs": [],
      "stateMutability": "nonpayable",
      "type": "function"
    },
    {
      "inputs": [
        {
          "internalType": "uint256",
          "name": "tokenId",
          "type": "uint256"
        },
        {
          "internalType": "string",
          "name": "_tokenURI",
          "type": "string"
        }
      ],
      "name": "setTokenURI",
      "outputs": [],
      "stateMutability": "nonpayable",
      "type": "function"
    },
    {
      "inputs": [
        {
          "internalType": "uint256",
          "name": "mintPrice",
          "type": "uint256"
        }
      ],
      "name": "setPrice",
      "outputs": [],
      "stateMutability": "nonpayable",
      "type": "function"
    },
    {
      "inputs": [
        {
          "internalType": "bool",
          "name": "openMint",
          "type": "bool"
        },
        {
          "internalType": "bool",
          "name": "openWhitelistMint",
          "type": "bool"
        }
      ],
      "name": "setMint",
      "outputs": [],
      "stateMutability": "nonpayable",
      "type": "function"
    },
    {
      "inputs": [],
      "name": "price",
      "outputs": [
        {
          "internalType": "uint256",
          "name": "",
          "type": "uint256"
        }
      ],
      "stateMutability": "view",
      "type": "function"
    },
    {
      "inputs": [
        {
          "internalType": "address[]",
          "name": "toSend",
          "type": "address[]"
        }
      ],
      "name": "mint",
      "outputs": [],
      "stateMutability": "payable",
      "type": "function"
    },
    {
      "inputs": [],
      "name": "mintWhitelist",
      "outputs": [],
      "stateMutability": "payable",
      "type": "function"
    },
    {
      "inputs": [
        {
          "internalType": "address",
          "name": "user",
          "type": "address"
        }
      ],
      "name": "whitelistUser",
      "outputs": [],
      "stateMutability": "nonpayable",
      "type": "function"
    },
    {
      "inputs": [
        {
          "internalType": "address",
          "name": "user",
          "type": "address"
        }
      ],
      "name": "whitelistStatus",
      "outputs": [
        {
          "internalType": "bool",
          "name": "",
          "type": "bool"
        }
      ],
      "stateMutability": "view",
      "type": "function"
    },
    {
      "inputs": [
        {
          "internalType": "uint256",
          "name": "tokenId",
          "type": "uint256"
        }
      ],
      "name": "tokenURI",
      "outputs": [
        {
          "internalType": "string",
          "name": "",
          "type": "string"
        }
      ],
      "stateMutability": "view",
      "type": "function"
    },
    {
      "inputs": [
        {
          "internalType": "bytes4",
          "name": "interfaceId",
          "type": "bytes4"
        }
      ],
      "name": "supportsInterface",
      "outputs": [
        {
          "internalType": "bool",
          "name": "",
          "type": "bool"
        }
      ],
      "stateMutability": "view",
      "type": "function"
    }
  ],
  "bytecode": "0x60806040523480156200001157600080fd5b5060405162006278380380620062788339818101604052810190620000379190620007ab565b8686816002908051906020019062000051929190620004be565b5080600390805190602001906200006a929190620004be565b5050506200008d620000816200016260201b60201c565b6200016a60201b60201c565b84600f9080519060200190620000a5929190620004be565b50836010819055508260118190555081601260006101000a81548173ffffffffffffffffffffffffffffffffffffffff021916908373ffffffffffffffffffffffffffffffffffffffff1602179055506000601260146101000a81548160ff0219169083151502179055506000601260156101000a81548160ff021916908315150217905550620001406000801b836200023060201b60201c565b620001556000801b826200023060201b60201c565b5050505050505062000920565b600033905090565b6000600d60009054906101000a900473ffffffffffffffffffffffffffffffffffffffff16905081600d60006101000a81548173ffffffffffffffffffffffffffffffffffffffff021916908373ffffffffffffffffffffffffffffffffffffffff1602179055508173ffffffffffffffffffffffffffffffffffffffff168173ffffffffffffffffffffffffffffffffffffffff167f8be0079c531659141344cd1fd0a4f28419497f9722a3daafe3b4186f6b6457e060405160405180910390a35050565b6200024282826200024660201b60201c565b5050565b6200025d82826200028e60201b62001aef1760201c565b6200028981600160008581526020019081526020016000206200037f60201b62001bcf1790919060201c565b505050565b620002a08282620003b760201b60201c565b6200037b57600160008084815260200190815260200160002060000160008373ffffffffffffffffffffffffffffffffffffffff1673ffffffffffffffffffffffffffffffffffffffff16815260200190815260200160002060006101000a81548160ff021916908315150217905550620003206200016260201b60201c565b73ffffffffffffffffffffffffffffffffffffffff168173ffffffffffffffffffffffffffffffffffffffff16837f2f8788117e7eff1d82e926ec794901d17c78024a50270940304540a733656f0d60405160405180910390a45b5050565b6000620003af836000018373ffffffffffffffffffffffffffffffffffffffff1660001b6200042160201b60201c565b905092915050565b600080600084815260200190815260200160002060000160008373ffffffffffffffffffffffffffffffffffffffff1673ffffffffffffffffffffffffffffffffffffffff16815260200190815260200160002060009054906101000a900460ff16905092915050565b60006200043583836200049b60201b60201c565b6200049057826000018290806001815401808255809150506001900390600052602060002001600090919091909150558260000180549050836001016000848152602001908152602001600020819055506001905062000495565b600090505b92915050565b600080836001016000848152602001908152602001600020541415905092915050565b828054620004cc90620008ea565b90600052602060002090601f016020900481019282620004f057600085556200053c565b82601f106200050b57805160ff19168380011785556200053c565b828001600101855582156200053c579182015b828111156200053b5782518255916020019190600101906200051e565b5b5090506200054b91906200054f565b5090565b5b808211156200056a57600081600090555060010162000550565b5090565b6000604051905090565b600080fd5b600080fd5b600080fd5b600080fd5b6000601f19601f8301169050919050565b7f4e487b7100000000000000000000000000000000000000000000000000000000600052604160045260246000fd5b620005d7826200058c565b810181811067ffffffffffffffff82111715620005f957620005f86200059d565b5b80604052505050565b60006200060e6200056e565b90506200061c8282620005cc565b919050565b600067ffffffffffffffff8211156200063f576200063e6200059d565b5b6200064a826200058c565b9050602081019050919050565b60005b83811015620006775780820151818401526020810190506200065a565b8381111562000687576000848401525b50505050565b6000620006a46200069e8462000621565b62000602565b905082815260208101848484011115620006c357620006c262000587565b5b620006d084828562000657565b509392505050565b600082601f830112620006f057620006ef62000582565b5b8151620007028482602086016200068d565b91505092915050565b6000819050919050565b62000720816200070b565b81146200072c57600080fd5b50565b600081519050620007408162000715565b92915050565b600073ffffffffffffffffffffffffffffffffffffffff82169050919050565b6000620007738262000746565b9050919050565b620007858162000766565b81146200079157600080fd5b50565b600081519050620007a5816200077a565b92915050565b600080600080600080600060e0888a031215620007cd57620007cc62000578565b5b600088015167ffffffffffffffff811115620007ee57620007ed6200057d565b5b620007fc8a828b01620006d8565b975050602088015167ffffffffffffffff81111562000820576200081f6200057d565b5b6200082e8a828b01620006d8565b965050604088015167ffffffffffffffff8111156200085257620008516200057d565b5b620008608a828b01620006d8565b9550506060620008738a828b016200072f565b9450506080620008868a828b016200072f565b93505060a0620008998a828b0162000794565b92505060c0620008ac8a828b0162000794565b91505092959891949750929550565b7f4e487b7100000000000000000000000000000000000000000000000000000000600052602260045260246000fd5b600060028204905060018216806200090357607f821691505b602082108114156200091a5762000919620008bb565b5b50919050565b61594880620009306000396000f3fe60806040526004361061021a5760003560e01c8063715018a611610123578063a22cb465116100ab578063ccaf1c4b1161006f578063ccaf1c4b146107eb578063d547741f14610828578063d59f08b314610851578063e985e9c51461087a578063f2fde38b146108b75761021a565b8063a22cb46514610703578063b88d4fde1461072c578063bd075b8414610755578063c87b56dd14610771578063ca15c873146107ae5761021a565b806391d14854116100f257806391d148541461061a57806395d89b411461065757806398bcede914610682578063a035b1fe146106ad578063a217fddf146106d85761021a565b8063715018a6146105725780638da5cb5b146105895780639010d07c146105b457806391b7f5ed146105f15761021a565b80632f2ff15d116101a65780634a4c560d116101755780634a4c560d146104695780634f6ccce71461049257806355f804b3146104cf5780636352211e146104f857806370a08231146105355761021a565b80632f2ff15d146103b15780632f745c59146103da57806336568abe1461041757806342842e0e146104405761021a565b8063162094c4116101ed578063162094c4146102ed57806318160ddd1461031657806323b872dd14610341578063248a9ca31461036a5780632d3df31f146103a75761021a565b806301ffc9a71461021f57806306fdde031461025c578063081812fc14610287578063095ea7b3146102c4575b600080fd5b34801561022b57600080fd5b506102466004803603810190610241919061393e565b6108e0565b6040516102539190613986565b60405180910390f35b34801561026857600080fd5b506102716108f2565b60405161027e9190613a3a565b60405180910390f35b34801561029357600080fd5b506102ae60048036038101906102a99190613a92565b610984565b6040516102bb9190613b00565b60405180910390f35b3480156102d057600080fd5b506102eb60048036038101906102e69190613b47565b610a09565b005b3480156102f957600080fd5b50610314600480360381019061030f9190613cbc565b610b21565b005b34801561032257600080fd5b5061032b610b82565b6040516103389190613d27565b60405180910390f35b34801561034d57600080fd5b5061036860048036038101906103639190613d42565b610b8f565b005b34801561037657600080fd5b50610391600480360381019061038c9190613dcb565b610bef565b60405161039e9190613e07565b60405180910390f35b6103af610c0e565b005b3480156103bd57600080fd5b506103d860048036038101906103d39190613e22565b610e68565b005b3480156103e657600080fd5b5061040160048036038101906103fc9190613b47565b610e91565b60405161040e9190613d27565b60405180910390f35b34801561042357600080fd5b5061043e60048036038101906104399190613e22565b610f36565b005b34801561044c57600080fd5b5061046760048036038101906104629190613d42565b610fb9565b005b34801561047557600080fd5b50610490600480360381019061048b9190613e62565b610fd9565b005b34801561049e57600080fd5b506104b960048036038101906104b49190613a92565b611087565b6040516104c69190613d27565b60405180910390f35b3480156104db57600080fd5b506104f660048036038101906104f19190613e8f565b6110f8565b005b34801561050457600080fd5b5061051f600480360381019061051a9190613a92565b611165565b60405161052c9190613b00565b60405180910390f35b34801561054157600080fd5b5061055c60048036038101906105579190613e62565b611217565b6040516105699190613d27565b60405180910390f35b34801561057e57600080fd5b506105876112cf565b005b34801561059557600080fd5b5061059e611357565b6040516105ab9190613b00565b60405180910390f35b3480156105c057600080fd5b506105db60048036038101906105d69190613ed8565b611381565b6040516105e89190613b00565b60405180910390f35b3480156105fd57600080fd5b5061061860048036038101906106139190613a92565b6113b0565b005b34801561062657600080fd5b50610641600480360381019061063c9190613e22565b61140d565b60405161064e9190613986565b60405180910390f35b34801561066357600080fd5b5061066c611477565b6040516106799190613a3a565b60405180910390f35b34801561068e57600080fd5b50610697611509565b6040516106a49190613d27565b60405180910390f35b3480156106b957600080fd5b506106c2611515565b6040516106cf9190613d27565b60405180910390f35b3480156106e457600080fd5b506106ed61151f565b6040516106fa9190613e07565b60405180910390f35b34801561070f57600080fd5b5061072a60048036038101906107259190613f44565b611526565b005b34801561073857600080fd5b50610753600480360381019061074e9190614025565b61153c565b005b61076f600480360381019061076a9190614170565b61159e565b005b34801561077d57600080fd5b5061079860048036038101906107939190613a92565b611823565b6040516107a59190613a3a565b60405180910390f35b3480156107ba57600080fd5b506107d560048036038101906107d09190613dcb565b611835565b6040516107e29190613d27565b60405180910390f35b3480156107f757600080fd5b50610812600480360381019061080d9190613e62565b611859565b60405161081f9190613986565b60405180910390f35b34801561083457600080fd5b5061084f600480360381019061084a9190613e22565b6118af565b005b34801561085d57600080fd5b50610878600480360381019061087391906141b9565b6118d8565b005b34801561088657600080fd5b506108a1600480360381019061089c91906141f9565b611963565b6040516108ae9190613986565b60405180910390f35b3480156108c357600080fd5b506108de60048036038101906108d99190613e62565b6119f7565b005b60006108eb82611bff565b9050919050565b60606002805461090190614268565b80601f016020809104026020016040519081016040528092919081815260200182805461092d90614268565b801561097a5780601f1061094f5761010080835404028352916020019161097a565b820191906000526020600020905b81548152906001019060200180831161095d57829003601f168201915b5050505050905090565b600061098f82611c79565b6109ce576040517f08c379a00000000000000000000000000000000000000000000000000000000081526004016109c59061430c565b60405180910390fd5b6006600083815260200190815260200160002060009054906101000a900473ffffffffffffffffffffffffffffffffffffffff169050919050565b6000610a1482611165565b90508073ffffffffffffffffffffffffffffffffffffffff168373ffffffffffffffffffffffffffffffffffffffff161415610a85576040517f08c379a0000000000000000000000000000000000000000000000000000000008152600401610a7c9061439e565b60405180910390fd5b8073ffffffffffffffffffffffffffffffffffffffff16610aa4611ce5565b73ffffffffffffffffffffffffffffffffffffffff161480610ad35750610ad281610acd611ce5565b611963565b5b610b12576040517f08c379a0000000000000000000000000000000000000000000000000000000008152600401610b0990614430565b60405180910390fd5b610b1c8383611ced565b505050565b610b356000801b610b30611ce5565b61140d565b610b74576040517f08c379a0000000000000000000000000000000000000000000000000000000008152600401610b6b906144c2565b60405180910390fd5b610b7e8282611da6565b5050565b6000600a80549050905090565b610ba0610b9a611ce5565b82611e1a565b610bdf576040517f08c379a0000000000000000000000000000000000000000000000000000000008152600401610bd690614554565b60405180910390fd5b610bea838383611ef8565b505050565b6000806000838152602001908152602001600020600101549050919050565b60011515601260159054906101000a900460ff16151514610c64576040517f08c379a0000000000000000000000000000000000000000000000000000000008152600401610c5b906145c0565b60405180910390fd5b60011515601360003373ffffffffffffffffffffffffffffffffffffffff1673ffffffffffffffffffffffffffffffffffffffff16815260200190815260200160002060009054906101000a900460ff16151514610cf7576040517f08c379a0000000000000000000000000000000000000000000000000000000008152600401610cee90614652565b60405180910390fd5b6010543414610d3b576040517f08c379a0000000000000000000000000000000000000000000000000000000008152600401610d32906146e4565b60405180910390fd5b601154610d48600e612154565b10610d88576040517f08c379a0000000000000000000000000000000000000000000000000000000008152600401610d7f90614776565b60405180910390fd5b6000601360003373ffffffffffffffffffffffffffffffffffffffff1673ffffffffffffffffffffffffffffffffffffffff16815260200190815260200160002060006101000a81548160ff021916908315150217905550610df333610dee600e612154565b612162565b610dfd600e612330565b601260009054906101000a900473ffffffffffffffffffffffffffffffffffffffff1673ffffffffffffffffffffffffffffffffffffffff166108fc349081150290604051600060405180830381858888f19350505050158015610e65573d6000803e3d6000fd5b50565b610e7182610bef565b610e8281610e7d611ce5565b612346565b610e8c83836123e3565b505050565b6000610e9c83611217565b8210610edd576040517f08c379a0000000000000000000000000000000000000000000000000000000008152600401610ed490614808565b60405180910390fd5b600860008473ffffffffffffffffffffffffffffffffffffffff1673ffffffffffffffffffffffffffffffffffffffff168152602001908152602001600020600083815260200190815260200160002054905092915050565b610f3e611ce5565b73ffffffffffffffffffffffffffffffffffffffff168173ffffffffffffffffffffffffffffffffffffffff1614610fab576040517f08c379a0000000000000000000000000000000000000000000000000000000008152600401610fa29061489a565b60405180910390fd5b610fb58282612417565b5050565b610fd48383836040518060200160405280600081525061153c565b505050565b610fed6000801b610fe8611ce5565b61140d565b61102c576040517f08c379a00000000000000000000000000000000000000000000000000000000081526004016110239061492c565b60405180910390fd5b6001601360008373ffffffffffffffffffffffffffffffffffffffff1673ffffffffffffffffffffffffffffffffffffffff16815260200190815260200160002060006101000a81548160ff02191690831515021790555050565b6000611091610b82565b82106110d2576040517f08c379a00000000000000000000000000000000000000000000000000000000081526004016110c9906149be565b60405180910390fd5b600a82815481106110e6576110e56149de565b5b90600052602060002001549050919050565b61110c6000801b611107611ce5565b61140d565b61114b576040517f08c379a000000000000000000000000000000000000000000000000000000000815260040161114290614a7f565b60405180910390fd5b80600f908051906020019061116192919061382f565b5050565b6000806004600084815260200190815260200160002060009054906101000a900473ffffffffffffffffffffffffffffffffffffffff169050600073ffffffffffffffffffffffffffffffffffffffff168173ffffffffffffffffffffffffffffffffffffffff16141561120e576040517f08c379a000000000000000000000000000000000000000000000000000000000815260040161120590614b11565b60405180910390fd5b80915050919050565b60008073ffffffffffffffffffffffffffffffffffffffff168273ffffffffffffffffffffffffffffffffffffffff161415611288576040517f08c379a000000000000000000000000000000000000000000000000000000000815260040161127f90614ba3565b60405180910390fd5b600560008373ffffffffffffffffffffffffffffffffffffffff1673ffffffffffffffffffffffffffffffffffffffff168152602001908152602001600020549050919050565b6112d7611ce5565b73ffffffffffffffffffffffffffffffffffffffff166112f5611357565b73ffffffffffffffffffffffffffffffffffffffff161461134b576040517f08c379a000000000000000000000000000000000000000000000000000000000815260040161134290614c0f565b60405180910390fd5b611355600061244b565b565b6000600d60009054906101000a900473ffffffffffffffffffffffffffffffffffffffff16905090565b60006113a8826001600086815260200190815260200160002061251190919063ffffffff16565b905092915050565b6113c46000801b6113bf611ce5565b61140d565b611403576040517f08c379a00000000000000000000000000000000000000000000000000000000081526004016113fa90614ca1565b60405180910390fd5b8060108190555050565b600080600084815260200190815260200160002060000160008373ffffffffffffffffffffffffffffffffffffffff1673ffffffffffffffffffffffffffffffffffffffff16815260200190815260200160002060009054906101000a900460ff16905092915050565b60606003805461148690614268565b80601f01602080910402602001604051908101604052809291908181526020018280546114b290614268565b80156114ff5780601f106114d4576101008083540402835291602001916114ff565b820191906000526020600020905b8154815290600101906020018083116114e257829003601f168201915b5050505050905090565b600e8060000154905081565b6000601054905090565b6000801b81565b611538611531611ce5565b838361252b565b5050565b61154d611547611ce5565b83611e1a565b61158c576040517f08c379a000000000000000000000000000000000000000000000000000000000815260040161158390614554565b60405180910390fd5b61159884848484612698565b50505050565b6115a6611ce5565b73ffffffffffffffffffffffffffffffffffffffff166115c4611357565b73ffffffffffffffffffffffffffffffffffffffff161461161a576040517f08c379a000000000000000000000000000000000000000000000000000000000815260040161161190614c0f565b60405180910390fd5b61010081511115611660576040517f08c379a000000000000000000000000000000000000000000000000000000000815260040161165790614d33565b60405180910390fd5b60011515601260149054906101000a900460ff161515146116b6576040517f08c379a00000000000000000000000000000000000000000000000000000000081526004016116ad906145c0565b60405180910390fd5b80516010546116c59190614d82565b3414611706576040517f08c379a00000000000000000000000000000000000000000000000000000000081526004016116fd906146e4565b60405180910390fd5b6011548151611715600e612154565b61171f9190614ddc565b1115611760576040517f08c379a000000000000000000000000000000000000000000000000000000000815260040161175790614ea4565b60405180910390fd5b60005b81518110156117b657611799828281518110611782576117816149de565b5b6020026020010151611794600e612154565b612162565b6117a3600e612330565b80806117ae90614ec4565b915050611763565b50601260009054906101000a900473ffffffffffffffffffffffffffffffffffffffff1673ffffffffffffffffffffffffffffffffffffffff166108fc349081150290604051600060405180830381858888f1935050505015801561181f573d6000803e3d6000fd5b5050565b606061182e826126f4565b9050919050565b600061185260016000848152602001908152602001600020612846565b9050919050565b6000601360008373ffffffffffffffffffffffffffffffffffffffff1673ffffffffffffffffffffffffffffffffffffffff16815260200190815260200160002060009054906101000a900460ff169050919050565b6118b882610bef565b6118c9816118c4611ce5565b612346565b6118d38383612417565b505050565b6118ec6000801b6118e7611ce5565b61140d565b61192b576040517f08c379a000000000000000000000000000000000000000000000000000000000815260040161192290614f7f565b60405180910390fd5b81601260146101000a81548160ff02191690831515021790555080601260156101000a81548160ff0219169083151502179055505050565b6000600760008473ffffffffffffffffffffffffffffffffffffffff1673ffffffffffffffffffffffffffffffffffffffff16815260200190815260200160002060008373ffffffffffffffffffffffffffffffffffffffff1673ffffffffffffffffffffffffffffffffffffffff16815260200190815260200160002060009054906101000a900460ff16905092915050565b6119ff611ce5565b73ffffffffffffffffffffffffffffffffffffffff16611a1d611357565b73ffffffffffffffffffffffffffffffffffffffff1614611a73576040517f08c379a0000000000000000000000000000000000000000000000000000000008152600401611a6a90614c0f565b60405180910390fd5b600073ffffffffffffffffffffffffffffffffffffffff168173ffffffffffffffffffffffffffffffffffffffff161415611ae3576040517f08c379a0000000000000000000000000000000000000000000000000000000008152600401611ada90615011565b60405180910390fd5b611aec8161244b565b50565b611af9828261140d565b611bcb57600160008084815260200190815260200160002060000160008373ffffffffffffffffffffffffffffffffffffffff1673ffffffffffffffffffffffffffffffffffffffff16815260200190815260200160002060006101000a81548160ff021916908315150217905550611b70611ce5565b73ffffffffffffffffffffffffffffffffffffffff168173ffffffffffffffffffffffffffffffffffffffff16837f2f8788117e7eff1d82e926ec794901d17c78024a50270940304540a733656f0d60405160405180910390a45b5050565b6000611bf7836000018373ffffffffffffffffffffffffffffffffffffffff1660001b61285b565b905092915050565b60007f780e9d63000000000000000000000000000000000000000000000000000000007bffffffffffffffffffffffffffffffffffffffffffffffffffffffff1916827bffffffffffffffffffffffffffffffffffffffffffffffffffffffff19161480611c725750611c71826128cb565b5b9050919050565b60008073ffffffffffffffffffffffffffffffffffffffff166004600084815260200190815260200160002060009054906101000a900473ffffffffffffffffffffffffffffffffffffffff1673ffffffffffffffffffffffffffffffffffffffff1614159050919050565b600033905090565b816006600083815260200190815260200160002060006101000a81548173ffffffffffffffffffffffffffffffffffffffff021916908373ffffffffffffffffffffffffffffffffffffffff160217905550808273ffffffffffffffffffffffffffffffffffffffff16611d6083611165565b73ffffffffffffffffffffffffffffffffffffffff167f8c5be1e5ebec7d5bd14f71427d1e84f3dd0314c0f7b2291e5b200ac8c7c3b92560405160405180910390a45050565b611daf82611c79565b611dee576040517f08c379a0000000000000000000000000000000000000000000000000000000008152600401611de5906150a3565b60405180910390fd5b80600c60008481526020019081526020016000209080519060200190611e1592919061382f565b505050565b6000611e2582611c79565b611e64576040517f08c379a0000000000000000000000000000000000000000000000000000000008152600401611e5b90615135565b60405180910390fd5b6000611e6f83611165565b90508073ffffffffffffffffffffffffffffffffffffffff168473ffffffffffffffffffffffffffffffffffffffff161480611ede57508373ffffffffffffffffffffffffffffffffffffffff16611ec684610984565b73ffffffffffffffffffffffffffffffffffffffff16145b80611eef5750611eee8185611963565b5b91505092915050565b8273ffffffffffffffffffffffffffffffffffffffff16611f1882611165565b73ffffffffffffffffffffffffffffffffffffffff1614611f6e576040517f08c379a0000000000000000000000000000000000000000000000000000000008152600401611f65906151c7565b60405180910390fd5b600073ffffffffffffffffffffffffffffffffffffffff168273ffffffffffffffffffffffffffffffffffffffff161415611fde576040517f08c379a0000000000000000000000000000000000000000000000000000000008152600401611fd590615259565b60405180910390fd5b611fe98383836129ad565b611ff4600082611ced565b6001600560008573ffffffffffffffffffffffffffffffffffffffff1673ffffffffffffffffffffffffffffffffffffffff16815260200190815260200160002060008282546120449190615279565b925050819055506001600560008473ffffffffffffffffffffffffffffffffffffffff1673ffffffffffffffffffffffffffffffffffffffff168152602001908152602001600020600082825461209b9190614ddc565b92505081905550816004600083815260200190815260200160002060006101000a81548173ffffffffffffffffffffffffffffffffffffffff021916908373ffffffffffffffffffffffffffffffffffffffff160217905550808273ffffffffffffffffffffffffffffffffffffffff168473ffffffffffffffffffffffffffffffffffffffff167fddf252ad1be2c89b69c2b068fc378daa952ba7f163c4a11628f55a4df523b3ef60405160405180910390a4505050565b600081600001549050919050565b600073ffffffffffffffffffffffffffffffffffffffff168273ffffffffffffffffffffffffffffffffffffffff1614156121d2576040517f08c379a00000000000000000000000000000000000000000000000000000000081526004016121c9906152f9565b60405180910390fd5b6121db81611c79565b1561221b576040517f08c379a000000000000000000000000000000000000000000000000000000000815260040161221290615365565b60405180910390fd5b612227600083836129ad565b6001600560008473ffffffffffffffffffffffffffffffffffffffff1673ffffffffffffffffffffffffffffffffffffffff16815260200190815260200160002060008282546122779190614ddc565b92505081905550816004600083815260200190815260200160002060006101000a81548173ffffffffffffffffffffffffffffffffffffffff021916908373ffffffffffffffffffffffffffffffffffffffff160217905550808273ffffffffffffffffffffffffffffffffffffffff16600073ffffffffffffffffffffffffffffffffffffffff167fddf252ad1be2c89b69c2b068fc378daa952ba7f163c4a11628f55a4df523b3ef60405160405180910390a45050565b6001816000016000828254019250508190555050565b612350828261140d565b6123df576123758173ffffffffffffffffffffffffffffffffffffffff1660146129bd565b6123838360001c60206129bd565b604051602001612394929190615459565b6040516020818303038152906040526040517f08c379a00000000000000000000000000000000000000000000000000000000081526004016123d69190613a3a565b60405180910390fd5b5050565b6123ed8282611aef565b6124128160016000858152602001908152602001600020611bcf90919063ffffffff16565b505050565b6124218282612bf9565b6124468160016000858152602001908152602001600020612cda90919063ffffffff16565b505050565b6000600d60009054906101000a900473ffffffffffffffffffffffffffffffffffffffff16905081600d60006101000a81548173ffffffffffffffffffffffffffffffffffffffff021916908373ffffffffffffffffffffffffffffffffffffffff1602179055508173ffffffffffffffffffffffffffffffffffffffff168173ffffffffffffffffffffffffffffffffffffffff167f8be0079c531659141344cd1fd0a4f28419497f9722a3daafe3b4186f6b6457e060405160405180910390a35050565b60006125208360000183612d0a565b60001c905092915050565b8173ffffffffffffffffffffffffffffffffffffffff168373ffffffffffffffffffffffffffffffffffffffff16141561259a576040517f08c379a0000000000000000000000000000000000000000000000000000000008152600401612591906154df565b60405180910390fd5b80600760008573ffffffffffffffffffffffffffffffffffffffff1673ffffffffffffffffffffffffffffffffffffffff16815260200190815260200160002060008473ffffffffffffffffffffffffffffffffffffffff1673ffffffffffffffffffffffffffffffffffffffff16815260200190815260200160002060006101000a81548160ff0219169083151502179055508173ffffffffffffffffffffffffffffffffffffffff168373ffffffffffffffffffffffffffffffffffffffff167f17307eab39ab6107e8899845ad3d59bd9653f200f220920489ca2b5937696c318360405161268b9190613986565b60405180910390a3505050565b6126a3848484611ef8565b6126af84848484612d35565b6126ee576040517f08c379a00000000000000000000000000000000000000000000000000000000081526004016126e590615571565b60405180910390fd5b50505050565b60606126ff82611c79565b61273e576040517f08c379a000000000000000000000000000000000000000000000000000000000815260040161273590615603565b60405180910390fd5b6000600c6000848152602001908152602001600020805461275e90614268565b80601f016020809104026020016040519081016040528092919081815260200182805461278a90614268565b80156127d75780601f106127ac576101008083540402835291602001916127d7565b820191906000526020600020905b8154815290600101906020018083116127ba57829003601f168201915b5050505050905060006127e8612ebd565b90506000815114156127fe578192505050612841565b60008251111561283357808260405160200161281b929190615623565b60405160208183030381529060405292505050612841565b61283c84612f4f565b925050505b919050565b600061285482600001612ff6565b9050919050565b60006128678383613007565b6128c05782600001829080600181540180825580915050600190039060005260206000200160009091909190915055826000018054905083600101600084815260200190815260200160002081905550600190506128c5565b600090505b92915050565b60007f80ac58cd000000000000000000000000000000000000000000000000000000007bffffffffffffffffffffffffffffffffffffffffffffffffffffffff1916827bffffffffffffffffffffffffffffffffffffffffffffffffffffffff1916148061299657507f5b5e139f000000000000000000000000000000000000000000000000000000007bffffffffffffffffffffffffffffffffffffffffffffffffffffffff1916827bffffffffffffffffffffffffffffffffffffffffffffffffffffffff1916145b806129a657506129a58261302a565b5b9050919050565b6129b88383836130a4565b505050565b6060600060028360026129d09190614d82565b6129da9190614ddc565b67ffffffffffffffff8111156129f3576129f2613b91565b5b6040519080825280601f01601f191660200182016040528015612a255781602001600182028036833780820191505090505b5090507f300000000000000000000000000000000000000000000000000000000000000081600081518110612a5d57612a5c6149de565b5b60200101907effffffffffffffffffffffffffffffffffffffffffffffffffffffffffffff1916908160001a9053507f780000000000000000000000000000000000000000000000000000000000000081600181518110612ac157612ac06149de565b5b60200101907effffffffffffffffffffffffffffffffffffffffffffffffffffffffffffff1916908160001a90535060006001846002612b019190614d82565b612b0b9190614ddc565b90505b6001811115612bab577f3031323334353637383961626364656600000000000000000000000000000000600f861660108110612b4d57612b4c6149de565b5b1a60f81b828281518110612b6457612b636149de565b5b60200101907effffffffffffffffffffffffffffffffffffffffffffffffffffffffffffff1916908160001a905350600485901c945080612ba490615647565b9050612b0e565b5060008414612bef576040517f08c379a0000000000000000000000000000000000000000000000000000000008152600401612be6906156bd565b60405180910390fd5b8091505092915050565b612c03828261140d565b15612cd657600080600084815260200190815260200160002060000160008373ffffffffffffffffffffffffffffffffffffffff1673ffffffffffffffffffffffffffffffffffffffff16815260200190815260200160002060006101000a81548160ff021916908315150217905550612c7b611ce5565b73ffffffffffffffffffffffffffffffffffffffff168173ffffffffffffffffffffffffffffffffffffffff16837ff6391f5c32d9c69d2a47ea670b442974b53935d1edc7fd64eb21e047a839171b60405160405180910390a45b5050565b6000612d02836000018373ffffffffffffffffffffffffffffffffffffffff1660001b6131b8565b905092915050565b6000826000018281548110612d2257612d216149de565b5b9060005260206000200154905092915050565b6000612d568473ffffffffffffffffffffffffffffffffffffffff166132cc565b15612eb0578373ffffffffffffffffffffffffffffffffffffffff1663150b7a02612d7f611ce5565b8786866040518563ffffffff1660e01b8152600401612da19493929190615732565b6020604051808303816000875af1925050508015612ddd57506040513d601f19601f82011682018060405250810190612dda9190615793565b60015b612e60573d8060008114612e0d576040519150601f19603f3d011682016040523d82523d6000602084013e612e12565b606091505b50600081511415612e58576040517f08c379a0000000000000000000000000000000000000000000000000000000008152600401612e4f90615571565b60405180910390fd5b805181602001fd5b63150b7a0260e01b7bffffffffffffffffffffffffffffffffffffffffffffffffffffffff1916817bffffffffffffffffffffffffffffffffffffffffffffffffffffffff191614915050612eb5565b600190505b949350505050565b6060600f8054612ecc90614268565b80601f0160208091040260200160405190810160405280929190818152602001828054612ef890614268565b8015612f455780601f10612f1a57610100808354040283529160200191612f45565b820191906000526020600020905b815481529060010190602001808311612f2857829003601f168201915b5050505050905090565b6060612f5a82611c79565b612f99576040517f08c379a0000000000000000000000000000000000000000000000000000000008152600401612f9090615832565b60405180910390fd5b6000612fa3612ebd565b90506000815111612fc35760405180602001604052806000815250612fee565b80612fcd846132df565b604051602001612fde929190615623565b6040516020818303038152906040525b915050919050565b600081600001805490509050919050565b600080836001016000848152602001908152602001600020541415905092915050565b60007f5a05180f000000000000000000000000000000000000000000000000000000007bffffffffffffffffffffffffffffffffffffffffffffffffffffffff1916827bffffffffffffffffffffffffffffffffffffffffffffffffffffffff1916148061309d575061309c82613440565b5b9050919050565b6130af8383836134ba565b600073ffffffffffffffffffffffffffffffffffffffff168373ffffffffffffffffffffffffffffffffffffffff1614156130f2576130ed816134bf565b613131565b8173ffffffffffffffffffffffffffffffffffffffff168373ffffffffffffffffffffffffffffffffffffffff16146131305761312f8382613508565b5b5b600073ffffffffffffffffffffffffffffffffffffffff168273ffffffffffffffffffffffffffffffffffffffff1614156131745761316f81613675565b6131b3565b8273ffffffffffffffffffffffffffffffffffffffff168273ffffffffffffffffffffffffffffffffffffffff16146131b2576131b18282613746565b5b5b505050565b600080836001016000848152602001908152602001600020549050600081146132c05760006001826131ea9190615279565b90506000600186600001805490506132029190615279565b9050818114613271576000866000018281548110613223576132226149de565b5b9060005260206000200154905080876000018481548110613247576132466149de565b5b90600052602060002001819055508387600101600083815260200190815260200160002081905550505b8560000180548061328557613284615852565b5b6001900381819060005260206000200160009055905585600101600086815260200190815260200160002060009055600193505050506132c6565b60009150505b92915050565b600080823b905060008111915050919050565b60606000821415613327576040518060400160405280600181526020017f3000000000000000000000000000000000000000000000000000000000000000815250905061343b565b600082905060005b6000821461335957808061334290614ec4565b915050600a8261335291906158b0565b915061332f565b60008167ffffffffffffffff81111561337557613374613b91565b5b6040519080825280601f01601f1916602001820160405280156133a75781602001600182028036833780820191505090505b5090505b60008514613434576001826133c09190615279565b9150600a856133cf91906158e1565b60306133db9190614ddc565b60f81b8183815181106133f1576133f06149de565b5b60200101907effffffffffffffffffffffffffffffffffffffffffffffffffffffffffffff1916908160001a905350600a8561342d91906158b0565b94506133ab565b8093505050505b919050565b60007f7965db0b000000000000000000000000000000000000000000000000000000007bffffffffffffffffffffffffffffffffffffffffffffffffffffffff1916827bffffffffffffffffffffffffffffffffffffffffffffffffffffffff191614806134b357506134b2826137c5565b5b9050919050565b505050565b600a80549050600b600083815260200190815260200160002081905550600a81908060018154018082558091505060019003906000526020600020016000909190919091505550565b6000600161351584611217565b61351f9190615279565b9050600060096000848152602001908152602001600020549050818114613604576000600860008673ffffffffffffffffffffffffffffffffffffffff1673ffffffffffffffffffffffffffffffffffffffff168152602001908152602001600020600084815260200190815260200160002054905080600860008773ffffffffffffffffffffffffffffffffffffffff1673ffffffffffffffffffffffffffffffffffffffff168152602001908152602001600020600084815260200190815260200160002081905550816009600083815260200190815260200160002081905550505b6009600084815260200190815260200160002060009055600860008573ffffffffffffffffffffffffffffffffffffffff1673ffffffffffffffffffffffffffffffffffffffff16815260200190815260200160002060008381526020019081526020016000206000905550505050565b60006001600a805490506136899190615279565b90506000600b60008481526020019081526020016000205490506000600a83815481106136b9576136b86149de565b5b9060005260206000200154905080600a83815481106136db576136da6149de565b5b906000526020600020018190555081600b600083815260200190815260200160002081905550600b600085815260200190815260200160002060009055600a80548061372a57613729615852565b5b6001900381819060005260206000200160009055905550505050565b600061375183611217565b905081600860008573ffffffffffffffffffffffffffffffffffffffff1673ffffffffffffffffffffffffffffffffffffffff168152602001908152602001600020600083815260200190815260200160002081905550806009600084815260200190815260200160002081905550505050565b60007f01ffc9a7000000000000000000000000000000000000000000000000000000007bffffffffffffffffffffffffffffffffffffffffffffffffffffffff1916827bffffffffffffffffffffffffffffffffffffffffffffffffffffffff1916149050919050565b82805461383b90614268565b90600052602060002090601f01602090048101928261385d57600085556138a4565b82601f1061387657805160ff19168380011785556138a4565b828001600101855582156138a4579182015b828111156138a3578251825591602001919060010190613888565b5b5090506138b191906138b5565b5090565b5b808211156138ce5760008160009055506001016138b6565b5090565b6000604051905090565b600080fd5b600080fd5b60007fffffffff0000000000000000000000000000000000000000000000000000000082169050919050565b61391b816138e6565b811461392657600080fd5b50565b60008135905061393881613912565b92915050565b600060208284031215613954576139536138dc565b5b600061396284828501613929565b91505092915050565b60008115159050919050565b6139808161396b565b82525050565b600060208201905061399b6000830184613977565b92915050565b600081519050919050565b600082825260208201905092915050565b60005b838110156139db5780820151818401526020810190506139c0565b838111156139ea576000848401525b50505050565b6000601f19601f8301169050919050565b6000613a0c826139a1565b613a1681856139ac565b9350613a268185602086016139bd565b613a2f816139f0565b840191505092915050565b60006020820190508181036000830152613a548184613a01565b905092915050565b6000819050919050565b613a6f81613a5c565b8114613a7a57600080fd5b50565b600081359050613a8c81613a66565b92915050565b600060208284031215613aa857613aa76138dc565b5b6000613ab684828501613a7d565b91505092915050565b600073ffffffffffffffffffffffffffffffffffffffff82169050919050565b6000613aea82613abf565b9050919050565b613afa81613adf565b82525050565b6000602082019050613b156000830184613af1565b92915050565b613b2481613adf565b8114613b2f57600080fd5b50565b600081359050613b4181613b1b565b92915050565b60008060408385031215613b5e57613b5d6138dc565b5b6000613b6c85828601613b32565b9250506020613b7d85828601613a7d565b9150509250929050565b600080fd5b600080fd5b7f4e487b7100000000000000000000000000000000000000000000000000000000600052604160045260246000fd5b613bc9826139f0565b810181811067ffffffffffffffff82111715613be857613be7613b91565b5b80604052505050565b6000613bfb6138d2565b9050613c078282613bc0565b919050565b600067ffffffffffffffff821115613c2757613c26613b91565b5b613c30826139f0565b9050602081019050919050565b82818337600083830152505050565b6000613c5f613c5a84613c0c565b613bf1565b905082815260208101848484011115613c7b57613c7a613b8c565b5b613c86848285613c3d565b509392505050565b600082601f830112613ca357613ca2613b87565b5b8135613cb3848260208601613c4c565b91505092915050565b60008060408385031215613cd357613cd26138dc565b5b6000613ce185828601613a7d565b925050602083013567ffffffffffffffff811115613d0257613d016138e1565b5b613d0e85828601613c8e565b9150509250929050565b613d2181613a5c565b82525050565b6000602082019050613d3c6000830184613d18565b92915050565b600080600060608486031215613d5b57613d5a6138dc565b5b6000613d6986828701613b32565b9350506020613d7a86828701613b32565b9250506040613d8b86828701613a7d565b9150509250925092565b6000819050919050565b613da881613d95565b8114613db357600080fd5b50565b600081359050613dc581613d9f565b92915050565b600060208284031215613de157613de06138dc565b5b6000613def84828501613db6565b91505092915050565b613e0181613d95565b82525050565b6000602082019050613e1c6000830184613df8565b92915050565b60008060408385031215613e3957613e386138dc565b5b6000613e4785828601613db6565b9250506020613e5885828601613b32565b9150509250929050565b600060208284031215613e7857613e776138dc565b5b6000613e8684828501613b32565b91505092915050565b600060208284031215613ea557613ea46138dc565b5b600082013567ffffffffffffffff811115613ec357613ec26138e1565b5b613ecf84828501613c8e565b91505092915050565b60008060408385031215613eef57613eee6138dc565b5b6000613efd85828601613db6565b9250506020613f0e85828601613a7d565b9150509250929050565b613f218161396b565b8114613f2c57600080fd5b50565b600081359050613f3e81613f18565b92915050565b60008060408385031215613f5b57613f5a6138dc565b5b6000613f6985828601613b32565b9250506020613f7a85828601613f2f565b9150509250929050565b600067ffffffffffffffff821115613f9f57613f9e613b91565b5b613fa8826139f0565b9050602081019050919050565b6000613fc8613fc384613f84565b613bf1565b905082815260208101848484011115613fe457613fe3613b8c565b5b613fef848285613c3d565b509392505050565b600082601f83011261400c5761400b613b87565b5b813561401c848260208601613fb5565b91505092915050565b6000806000806080858703121561403f5761403e6138dc565b5b600061404d87828801613b32565b945050602061405e87828801613b32565b935050604061406f87828801613a7d565b925050606085013567ffffffffffffffff8111156140905761408f6138e1565b5b61409c87828801613ff7565b91505092959194509250565b600067ffffffffffffffff8211156140c3576140c2613b91565b5b602082029050602081019050919050565b600080fd5b60006140ec6140e7846140a8565b613bf1565b9050808382526020820190506020840283018581111561410f5761410e6140d4565b5b835b8181101561413857806141248882613b32565b845260208401935050602081019050614111565b5050509392505050565b600082601f83011261415757614156613b87565b5b81356141678482602086016140d9565b91505092915050565b600060208284031215614186576141856138dc565b5b600082013567ffffffffffffffff8111156141a4576141a36138e1565b5b6141b084828501614142565b91505092915050565b600080604083850312156141d0576141cf6138dc565b5b60006141de85828601613f2f565b92505060206141ef85828601613f2f565b9150509250929050565b600080604083850312156142105761420f6138dc565b5b600061421e85828601613b32565b925050602061422f85828601613b32565b9150509250929050565b7f4e487b7100000000000000000000000000000000000000000000000000000000600052602260045260246000fd5b6000600282049050600182168061428057607f821691505b6020821081141561429457614293614239565b5b50919050565b7f4552433732313a20617070726f76656420717565727920666f72206e6f6e657860008201527f697374656e7420746f6b656e0000000000000000000000000000000000000000602082015250565b60006142f6602c836139ac565b91506143018261429a565b604082019050919050565b60006020820190508181036000830152614325816142e9565b9050919050565b7f4552433732313a20617070726f76616c20746f2063757272656e74206f776e6560008201527f7200000000000000000000000000000000000000000000000000000000000000602082015250565b60006143886021836139ac565b91506143938261432c565b604082019050919050565b600060208201905081810360008301526143b78161437b565b9050919050565b7f4552433732313a20617070726f76652063616c6c6572206973206e6f74206f7760008201527f6e6572206e6f7220617070726f76656420666f7220616c6c0000000000000000602082015250565b600061441a6038836139ac565b9150614425826143be565b604082019050919050565b600060208201905081810360008301526144498161440d565b9050919050565b7f66616365734e46543a206d75737420686176652061646d696e20726f6c65207460008201527f6f206368616e676520746f6b656e205552490000000000000000000000000000602082015250565b60006144ac6032836139ac565b91506144b782614450565b604082019050919050565b600060208201905081810360008301526144db8161449f565b9050919050565b7f4552433732313a207472616e736665722063616c6c6572206973206e6f74206f60008201527f776e6572206e6f7220617070726f766564000000000000000000000000000000602082015250565b600061453e6031836139ac565b9150614549826144e2565b604082019050919050565b6000602082019050818103600083015261456d81614531565b9050919050565b7f66616365734e46543a206d696e74696e6720697320636c6f7365640000000000600082015250565b60006145aa601b836139ac565b91506145b582614574565b602082019050919050565b600060208201905081810360008301526145d98161459d565b9050919050565b7f66616365734e46543a2075736572206d7573742062652077686974656c69737460008201527f656420746f206d696e7400000000000000000000000000000000000000000000602082015250565b600061463c602a836139ac565b9150614647826145e0565b604082019050919050565b6000602082019050818103600083015261466b8161462f565b9050919050565b7f66616365734e46543a206d7573742073656e6420636f7272656374207072696360008201527f6500000000000000000000000000000000000000000000000000000000000000602082015250565b60006146ce6021836139ac565b91506146d982614672565b604082019050919050565b600060208201905081810360008301526146fd816146c1565b9050919050565b7f66616365734e46543a20616c6c2066616365734e46542068617665206265656e60008201527f206d696e74656400000000000000000000000000000000000000000000000000602082015250565b60006147606027836139ac565b915061476b82614704565b604082019050919050565b6000602082019050818103600083015261478f81614753565b9050919050565b7f455243373231456e756d657261626c653a206f776e657220696e646578206f7560008201527f74206f6620626f756e6473000000000000000000000000000000000000000000602082015250565b60006147f2602b836139ac565b91506147fd82614796565b604082019050919050565b60006020820190508181036000830152614821816147e5565b9050919050565b7f416363657373436f6e74726f6c3a2063616e206f6e6c792072656e6f756e636560008201527f20726f6c657320666f722073656c660000000000000000000000000000000000602082015250565b6000614884602f836139ac565b915061488f82614828565b604082019050919050565b600060208201905081810360008301526148b381614877565b9050919050565b7f66616365734e46543a206d75737420686176652061646d696e20726f6c65207460008201527f6f2077686974656c697374206164647265737300000000000000000000000000602082015250565b60006149166033836139ac565b9150614921826148ba565b604082019050919050565b6000602082019050818103600083015261494581614909565b9050919050565b7f455243373231456e756d657261626c653a20676c6f62616c20696e646578206f60008201527f7574206f6620626f756e64730000000000000000000000000000000000000000602082015250565b60006149a8602c836139ac565b91506149b38261494c565b604082019050919050565b600060208201905081810360008301526149d78161499b565b9050919050565b7f4e487b7100000000000000000000000000000000000000000000000000000000600052603260045260246000fd5b7f66616365734e46543a206d75737420686176652061646d696e20726f6c65207460008201527f6f206368616e6765206261736520555249000000000000000000000000000000602082015250565b6000614a696031836139ac565b9150614a7482614a0d565b604082019050919050565b60006020820190508181036000830152614a9881614a5c565b9050919050565b7f4552433732313a206f776e657220717565727920666f72206e6f6e657869737460008201527f656e7420746f6b656e0000000000000000000000000000000000000000000000602082015250565b6000614afb6029836139ac565b9150614b0682614a9f565b604082019050919050565b60006020820190508181036000830152614b2a81614aee565b9050919050565b7f4552433732313a2062616c616e636520717565727920666f7220746865207a6560008201527f726f206164647265737300000000000000000000000000000000000000000000602082015250565b6000614b8d602a836139ac565b9150614b9882614b31565b604082019050919050565b60006020820190508181036000830152614bbc81614b80565b9050919050565b7f4f776e61626c653a2063616c6c6572206973206e6f7420746865206f776e6572600082015250565b6000614bf96020836139ac565b9150614c0482614bc3565b602082019050919050565b60006020820190508181036000830152614c2881614bec565b9050919050565b7f66616365734e46543a206d75737420686176652061646d696e20726f6c65207460008201527f6f206368616e6765207072696365000000000000000000000000000000000000602082015250565b6000614c8b602e836139ac565b9150614c9682614c2f565b604082019050919050565b60006020820190508181036000830152614cba81614c7e565b9050919050565b7f66616365734e46543a206d6178206f66203235362066616365734e465420706560008201527f72206d696e740000000000000000000000000000000000000000000000000000602082015250565b6000614d1d6026836139ac565b9150614d2882614cc1565b604082019050919050565b60006020820190508181036000830152614d4c81614d10565b9050919050565b7f4e487b7100000000000000000000000000000000000000000000000000000000600052601160045260246000fd5b6000614d8d82613a5c565b9150614d9883613a5c565b9250817fffffffffffffffffffffffffffffffffffffffffffffffffffffffffffffffff0483118215151615614dd157614dd0614d53565b5b828202905092915050565b6000614de782613a5c565b9150614df283613a5c565b9250827fffffffffffffffffffffffffffffffffffffffffffffffffffffffffffffffff03821115614e2757614e26614d53565b5b828201905092915050565b7f66616365734e46543a206e6f7420656e6f7567682066616365734e4654206c6560008201527f667420746f206265206d696e7420616d6f756e74000000000000000000000000602082015250565b6000614e8e6034836139ac565b9150614e9982614e32565b604082019050919050565b60006020820190508181036000830152614ebd81614e81565b9050919050565b6000614ecf82613a5c565b91507fffffffffffffffffffffffffffffffffffffffffffffffffffffffffffffffff821415614f0257614f01614d53565b5b600182019050919050565b7f66616365734e46543a206d75737420686176652061646d696e20726f6c65207460008201527f6f206f70656e2f636c6f7365206d696e74000000000000000000000000000000602082015250565b6000614f696031836139ac565b9150614f7482614f0d565b604082019050919050565b60006020820190508181036000830152614f9881614f5c565b9050919050565b7f4f776e61626c653a206e6577206f776e657220697320746865207a65726f206160008201527f6464726573730000000000000000000000000000000000000000000000000000602082015250565b6000614ffb6026836139ac565b915061500682614f9f565b604082019050919050565b6000602082019050818103600083015261502a81614fee565b9050919050565b7f45524337323155524953746f726167653a2055524920736574206f66206e6f6e60008201527f6578697374656e7420746f6b656e000000000000000000000000000000000000602082015250565b600061508d602e836139ac565b915061509882615031565b604082019050919050565b600060208201905081810360008301526150bc81615080565b9050919050565b7f4552433732313a206f70657261746f7220717565727920666f72206e6f6e657860008201527f697374656e7420746f6b656e0000000000000000000000000000000000000000602082015250565b600061511f602c836139ac565b915061512a826150c3565b604082019050919050565b6000602082019050818103600083015261514e81615112565b9050919050565b7f4552433732313a207472616e73666572206f6620746f6b656e2074686174206960008201527f73206e6f74206f776e0000000000000000000000000000000000000000000000602082015250565b60006151b16029836139ac565b91506151bc82615155565b604082019050919050565b600060208201905081810360008301526151e0816151a4565b9050919050565b7f4552433732313a207472616e7366657220746f20746865207a65726f2061646460008201527f7265737300000000000000000000000000000000000000000000000000000000602082015250565b60006152436024836139ac565b915061524e826151e7565b604082019050919050565b6000602082019050818103600083015261527281615236565b9050919050565b600061528482613a5c565b915061528f83613a5c565b9250828210156152a2576152a1614d53565b5b828203905092915050565b7f4552433732313a206d696e7420746f20746865207a65726f2061646472657373600082015250565b60006152e36020836139ac565b91506152ee826152ad565b602082019050919050565b60006020820190508181036000830152615312816152d6565b9050919050565b7f4552433732313a20746f6b656e20616c7265616479206d696e74656400000000600082015250565b600061534f601c836139ac565b915061535a82615319565b602082019050919050565b6000602082019050818103600083015261537e81615342565b9050919050565b600081905092915050565b7f416363657373436f6e74726f6c3a206163636f756e7420000000000000000000600082015250565b60006153c6601783615385565b91506153d182615390565b601782019050919050565b60006153e7826139a1565b6153f18185615385565b93506154018185602086016139bd565b80840191505092915050565b7f206973206d697373696e6720726f6c6520000000000000000000000000000000600082015250565b6000615443601183615385565b915061544e8261540d565b601182019050919050565b6000615464826153b9565b915061547082856153dc565b915061547b82615436565b915061548782846153dc565b91508190509392505050565b7f4552433732313a20617070726f766520746f2063616c6c657200000000000000600082015250565b60006154c96019836139ac565b91506154d482615493565b602082019050919050565b600060208201905081810360008301526154f8816154bc565b9050919050565b7f4552433732313a207472616e7366657220746f206e6f6e20455243373231526560008201527f63656976657220696d706c656d656e7465720000000000000000000000000000602082015250565b600061555b6032836139ac565b9150615566826154ff565b604082019050919050565b6000602082019050818103600083015261558a8161554e565b9050919050565b7f45524337323155524953746f726167653a2055524920717565727920666f722060008201527f6e6f6e6578697374656e7420746f6b656e000000000000000000000000000000602082015250565b60006155ed6031836139ac565b91506155f882615591565b604082019050919050565b6000602082019050818103600083015261561c816155e0565b9050919050565b600061562f82856153dc565b915061563b82846153dc565b91508190509392505050565b600061565282613a5c565b9150600082141561566657615665614d53565b5b600182039050919050565b7f537472696e67733a20686578206c656e67746820696e73756666696369656e74600082015250565b60006156a76020836139ac565b91506156b282615671565b602082019050919050565b600060208201905081810360008301526156d68161569a565b9050919050565b600081519050919050565b600082825260208201905092915050565b6000615704826156dd565b61570e81856156e8565b935061571e8185602086016139bd565b615727816139f0565b840191505092915050565b60006080820190506157476000830187613af1565b6157546020830186613af1565b6157616040830185613d18565b818103606083015261577381846156f9565b905095945050505050565b60008151905061578d81613912565b92915050565b6000602082840312156157a9576157a86138dc565b5b60006157b78482850161577e565b91505092915050565b7f4552433732314d657461646174613a2055524920717565727920666f72206e6f60008201527f6e6578697374656e7420746f6b656e0000000000000000000000000000000000602082015250565b600061581c602f836139ac565b9150615827826157c0565b604082019050919050565b6000602082019050818103600083015261584b8161580f565b9050919050565b7f4e487b7100000000000000000000000000000000000000000000000000000000600052603160045260246000fd5b7f4e487b7100000000000000000000000000000000000000000000000000000000600052601260045260246000fd5b60006158bb82613a5c565b91506158c683613a5c565b9250826158d6576158d5615881565b5b828204905092915050565b60006158ec82613a5c565b91506158f783613a5c565b92508261590757615906615881565b5b82820690509291505056fea26469706673582212200906ec108cda615b1dab62ff0a909418afbe92e2745fe61f9d6c4dc25159f16f64736f6c634300080a0033",
  "immutableReferences": {},
  "source": "// SPDX-License-Identifier: MIT\npragma solidity ^0.8.0;\n\nimport \"@openzeppelin/contracts/token/ERC721/ERC721.sol\";\nimport \"@openzeppelin/contracts/token/ERC721/extensions/ERC721Enumerable.sol\";\nimport \"@openzeppelin/contracts/token/ERC721/extensions/ERC721Burnable.sol\";\nimport \"@openzeppelin/contracts/token/ERC721/extensions/ERC721URIStorage.sol\";\nimport \"@openzeppelin/contracts/access/AccessControlEnumerable.sol\";\nimport \"@openzeppelin/contracts/utils/Context.sol\";\nimport \"@openzeppelin/contracts/utils/Counters.sol\";\nimport \"@openzeppelin/contracts/access/Ownable.sol\";\n\ncontract facesNFT is\n    Context,\n    AccessControlEnumerable,\n    ERC721Enumerable,\n    ERC721URIStorage,\n    Ownable\n{\n    using Counters for Counters.Counter;\n    Counters.Counter public _tokenIdTracker;\n\n    string private _baseTokenURI;\n    uint256 private _price;\n    uint256 private _max;\n    address _wallet;\n\n    bool _openMint;\n    bool _openWhitelistMint;\n\n    mapping(address => bool) private whitelist;\n\n    constructor(\n        string memory name,\n        string memory symbol,\n        string memory baseTokenURI,\n        uint256 mintPrice,\n        uint256 max,\n        address wallet,\n        address admin\n    ) ERC721(name, symbol) {\n        _baseTokenURI = baseTokenURI;\n        _price = mintPrice;\n        _max = max;\n        _wallet = wallet;\n        _openMint = false;\n        _openWhitelistMint = false;\n        _setupRole(DEFAULT_ADMIN_ROLE, wallet);\n        _setupRole(DEFAULT_ADMIN_ROLE, admin);\n    }\n\n    function _baseURI() internal view virtual override returns (string memory) {\n        return _baseTokenURI;\n    }\n\n    function setBaseURI(string memory baseURI) external {\n        require(\n            hasRole(DEFAULT_ADMIN_ROLE, _msgSender()),\n            \"facesNFT: must have admin role to change base URI\"\n        );\n        _baseTokenURI = baseURI;\n    }\n\n    function setTokenURI(uint256 tokenId, string memory _tokenURI) external {\n        require(\n            hasRole(DEFAULT_ADMIN_ROLE, _msgSender()),\n            \"facesNFT: must have admin role to change token URI\"\n        );\n        _setTokenURI(tokenId, _tokenURI);\n    }\n\n    function setPrice(uint256 mintPrice) external {\n        require(\n            hasRole(DEFAULT_ADMIN_ROLE, _msgSender()),\n            \"facesNFT: must have admin role to change price\"\n        );\n        _price = mintPrice;\n    }\n\n    function setMint(bool openMint, bool openWhitelistMint) external {\n        require(\n            hasRole(DEFAULT_ADMIN_ROLE, _msgSender()),\n            \"facesNFT: must have admin role to open/close mint\"\n        );\n        _openMint = openMint;\n        _openWhitelistMint = openWhitelistMint;\n    }\n\n    function price() public view returns (uint256) {\n        return _price;\n    }\n\n    function mint(address[] memory toSend) public payable onlyOwner {\n        require(toSend.length <= 256, \"facesNFT: max of 256 facesNFT per mint\");\n        require(_openMint == true, \"facesNFT: minting is closed\");\n        require(\n            msg.value == _price * toSend.length,\n            \"facesNFT: must send correct price\"\n        );\n        require(\n            _tokenIdTracker.current() + toSend.length <= _max,\n            \"facesNFT: not enough facesNFT left to be mint amount\"\n        );\n        for (uint256 i = 0; i < toSend.length; i++) {\n            _mint(toSend[i], _tokenIdTracker.current());\n            _tokenIdTracker.increment();\n        }\n        payable(_wallet).transfer(msg.value);\n    }\n\n    function mintWhitelist() public payable {\n        require(_openWhitelistMint == true, \"facesNFT: minting is closed\");\n        require(\n            whitelist[msg.sender] == true,\n            \"facesNFT: user must be whitelisted to mint\"\n        );\n        require(msg.value == _price, \"facesNFT: must send correct price\");\n        require(\n            _tokenIdTracker.current() < _max,\n            \"facesNFT: all facesNFT have been minted\"\n        );\n\n        whitelist[msg.sender] = false;\n        _mint(msg.sender, _tokenIdTracker.current());\n        _tokenIdTracker.increment();\n        payable(_wallet).transfer(msg.value);\n    }\n\n    function whitelistUser(address user) public {\n        require(\n            hasRole(DEFAULT_ADMIN_ROLE, _msgSender()),\n            \"facesNFT: must have admin role to whitelist address\"\n        );\n        whitelist[user] = true;\n    }\n\n    function whitelistStatus(address user) public view returns (bool) {\n        return whitelist[user];\n    }\n\n    function _burn(uint256 tokenId)\n        internal\n        virtual\n        override(ERC721, ERC721URIStorage)\n    {\n        return ERC721URIStorage._burn(tokenId);\n    }\n\n    function tokenURI(uint256 tokenId)\n        public\n        view\n        override(ERC721, ERC721URIStorage)\n        returns (string memory)\n    {\n        return ERC721URIStorage.tokenURI(tokenId);\n    }\n\n    function _beforeTokenTransfer(\n        address from,\n        address to,\n        uint256 tokenId\n    ) internal virtual override(ERC721, ERC721Enumerable) {\n        super._beforeTokenTransfer(from, to, tokenId);\n    }\n\n    function supportsInterface(bytes4 interfaceId)\n        public\n        view\n        virtual\n        override(AccessControlEnumerable, ERC721, ERC721Enumerable)\n        returns (bool)\n    {\n        return super.supportsInterface(interfaceId);\n    }\n}\n",
  "sourcePath": "/Users/loliveira/Documents/nft-engine/engine/contracts/nft.sol",
  "compiler": {
    "name": "solc",
    "version": "0.8.10+commit.fc410830.Emscripten.clang"
  },
  "schemaVersion": "3.4.4",
  "updatedAt": "2022-01-06T19:18:44.047Z",
  "devdoc": {
    "kind": "dev",
    "methods": {
      "approve(address,uint256)": {
        "details": "See {IERC721-approve}."
      },
      "balanceOf(address)": {
        "details": "See {IERC721-balanceOf}."
      },
      "getApproved(uint256)": {
        "details": "See {IERC721-getApproved}."
      },
      "getRoleAdmin(bytes32)": {
        "details": "Returns the admin role that controls `role`. See {grantRole} and {revokeRole}. To change a role's admin, use {_setRoleAdmin}."
      },
      "getRoleMember(bytes32,uint256)": {
        "details": "Returns one of the accounts that have `role`. `index` must be a value between 0 and {getRoleMemberCount}, non-inclusive. Role bearers are not sorted in any particular way, and their ordering may change at any point. WARNING: When using {getRoleMember} and {getRoleMemberCount}, make sure you perform all queries on the same block. See the following https://forum.openzeppelin.com/t/iterating-over-elements-on-enumerableset-in-openzeppelin-contracts/2296[forum post] for more information."
      },
      "getRoleMemberCount(bytes32)": {
        "details": "Returns the number of accounts that have `role`. Can be used together with {getRoleMember} to enumerate all bearers of a role."
      },
      "grantRole(bytes32,address)": {
        "details": "Grants `role` to `account`. If `account` had not been already granted `role`, emits a {RoleGranted} event. Requirements: - the caller must have ``role``'s admin role."
      },
      "hasRole(bytes32,address)": {
        "details": "Returns `true` if `account` has been granted `role`."
      },
      "isApprovedForAll(address,address)": {
        "details": "See {IERC721-isApprovedForAll}."
      },
      "name()": {
        "details": "See {IERC721Metadata-name}."
      },
      "owner()": {
        "details": "Returns the address of the current owner."
      },
      "ownerOf(uint256)": {
        "details": "See {IERC721-ownerOf}."
      },
      "renounceOwnership()": {
        "details": "Leaves the contract without owner. It will not be possible to call `onlyOwner` functions anymore. Can only be called by the current owner. NOTE: Renouncing ownership will leave the contract without an owner, thereby removing any functionality that is only available to the owner."
      },
      "renounceRole(bytes32,address)": {
        "details": "Revokes `role` from the calling account. Roles are often managed via {grantRole} and {revokeRole}: this function's purpose is to provide a mechanism for accounts to lose their privileges if they are compromised (such as when a trusted device is misplaced). If the calling account had been revoked `role`, emits a {RoleRevoked} event. Requirements: - the caller must be `account`."
      },
      "revokeRole(bytes32,address)": {
        "details": "Revokes `role` from `account`. If `account` had been granted `role`, emits a {RoleRevoked} event. Requirements: - the caller must have ``role``'s admin role."
      },
      "safeTransferFrom(address,address,uint256)": {
        "details": "See {IERC721-safeTransferFrom}."
      },
      "safeTransferFrom(address,address,uint256,bytes)": {
        "details": "See {IERC721-safeTransferFrom}."
      },
      "setApprovalForAll(address,bool)": {
        "details": "See {IERC721-setApprovalForAll}."
      },
      "symbol()": {
        "details": "See {IERC721Metadata-symbol}."
      },
      "tokenByIndex(uint256)": {
        "details": "See {IERC721Enumerable-tokenByIndex}."
      },
      "tokenOfOwnerByIndex(address,uint256)": {
        "details": "See {IERC721Enumerable-tokenOfOwnerByIndex}."
      },
      "totalSupply()": {
        "details": "See {IERC721Enumerable-totalSupply}."
      },
      "transferFrom(address,address,uint256)": {
        "details": "See {IERC721-transferFrom}."
      },
      "transferOwnership(address)": {
        "details": "Transfers ownership of the contract to a new account (`newOwner`). Can only be called by the current owner."
      }
    },
    "version": 1
  },
  "userdoc": {
    "kind": "user",
    "methods": {},
    "version": 1
  }
}